S0140000536D617274456C6563747269632E733337AE
S31500000000401A00209DB10200D1380000D53800000A
S31500000010A70A02020002000004180FAC306A290188
S3150000002000000000000000000000000000000000CA
S315000000300000000078BB0300000000000000000084
S315000000400000000000000000FFFFFFFFFFFFFFFFB2
S31500000050FFFFFFFFFFFFFFFFFFFFFFFFFFFFFFFFAA
S3150000006000E00F000000000000000000FFFFFFFF9F
S31500000070FFFFFFFF1C000000000000000000000062
S315000000800000000000000000843B0020843B0020AC
S31500000090401A0020D0080400B0460300E0100020FB
S311000000A0B410002000001000000000005A
S31500000200401A00209DB10200D1380000D538000008
S315000002107DB10000D9380000E13800009BB1020032
S315000002209BB102009BB102009BB102009BB1020090
S31500000230E53800009BB102009BB102009BB10200B1
S3150000024051590000F1150300B93B00005839000070
S31500000250B50E030049160300FD150300151603002D
S31500000260F5150300F9490000E54A0000E5700000B5
S31500000270E9CF00005839000058390000583900000D
S315000002805839000058390000014B00005839000069
S315000002905839000058390000583900005839000014
S315000002A05839000058390000583900005839000004
S315000002B04D160300F9150300E556000089160300E4
S315000002C0583900002501030058390000583900004C
S315000002D058390000583900005839000058390000D4
S315000002E058390000583900005839000058390000C4
S315000002F058390000583900005839000058390000B4
S3110000030058390000583900009BB102007B
S3150000030CF8B500BFF8BC08BC9E467047F8B500BFF0
S3150000031CF8BC08BC9E46704710B5054C237833B91B
S3150000032C044B13B10448AFF300800123237010BDB6
S3150000033C58250020000000003801040008B5034BC6
S3150000034C1BB103490348AFF3008008BD0000000051
S3150000035C5C25002038010400A3F5803A704700BFE5
S3150000036C174B002B08BF134B9D46FFF7F5FF0021DB
S3150000037C8B460F461348144A121A34F067F90E4B83
S3150000038C002B00D098470D4B002B00D0984700202F
S3150000039C002104000D000D48002802D00C48AFF3D4
S315000003AC008034F0F7F8200029000DF0DBF834F06B
S315000003BCDDF800BF0000080000000000000000008F
S315000003CC401A0020D0210020843B002000000000B1
S315000003DC0000000030B5074D0FCD89B001AC0FC43D
S315000003EC95E8070084E8070001A903480AF032F8EB
S315000003FC09B030BDB8460300602F002047F6937352
S3150000040C98423AD843F2C903984238D842F20F734D
S3150000041C984236D841F67673984234D841F2CD4399
S3150000042C984232D840F61163984230D840F6B7134A
S3150000043C98422ED840F2D66398422CD8B0F59D6FD0
S3150000044C2BD2B0F5657F2CBF09230A23144A07EE7D
S3150000045C900A02EBC303D3ED006A93ED017AF8EE32
S3150000046C677AA6EEA77AF2EE047A67EE277AFDEEA5
S3150000047CE77A17EE903A18B270470023E6E70123A5
S3150000048CE4E70223E2E70323E0E70423DEE70523A0
S3150000049CDCE70623DAE70723D8E70823D6E700BF0D
S315000004ACD84603007FB5314B31499A8BADF8002005
S315000004BC00238DF802308DF80A302E4BADF808204B
S315000004CC04461A8808889B7889782B4EADF8040068
S315000004DC8DF80610ADF80C208DF80E30052503238B
S315000004EC6A4601A930460AF009F918B101252846D1
S315000004FC04B070BD032302AA03A930460AF0FEF825
S3150000050C0028F3D19DF801301B0203F470629DF8AC
S3150000051C023013436288134463809DF809301B0232
S3150000052C03F470629DF80A301343A2881344A38027
S3150000053C0A20013D04F0F2FE15F0FF05CFD105208F
S3150000054C6288A388B2FBF0F2B3FBF0F3D01AA38057
S3150000055C42F2107362805843C2F5805290FBF2F05F
S3150000056C80B2FFF74BFF2080C1E700BFB8460300FF
S3150000057CB0460300B3460300602F002011289ABF33
S3150000058C014B185C002070473847030010B5094B27
S3150000059C01440122884205D1DA685206FCD50222B2
S315000005AC5A6010BDDC682406FCD510F8014BDC62E1
S315000005BC5A60EFE700C000402DE9F04387B00546CE
S315000005CC0F4614460021102202A89DF83860984662
S315000005DC34F03CF802AA00204FF0010C4FF00A0E42
S315000005EC42F804CB0021CBB2984245D80130C0B2B8
S315000005FC0428F5D102238DF800303B4B032113F868
S3150000060C08308DF80110102F8DF8063040D10DF101
S3150000061C02020026FF278B0045FA03F303F00F03B3
S3150000062C1E4331D0137001261078FFF7A7FF01394E
S3150000063C02F8010BEFD274B1A11CC4F10402694497
S3150000064C0DF1020033F0E8FFC4F10600224600214A
S3150000065C684433F0FBFF68460121FFF797FF0DF165
S3150000066C01000521FFF792FF01210DF10600FFF7AE
S3150000067C8DFF07B0BDE8F08352F8043C0EFB03F384
S3150000068C42F8043C0131AEE70029CBD01770CBE71A
S3150000069C0A2FD0D10DF114080DF1020200274FF0EC
S315000006ACFF0958F80439B5FBF3F0C0B210FB03F39D
S315000006BCED1A40EA06031F43ADB20FD010700127A6
S315000006CC1078FFF75BFF013949B2002E18BF40F0D6
S315000006DC01004B1C02F8010BE3D1ACE70029EDD06D
S315000006EC82F80090ECE700BF30470300044B02226F
S315000006FC20215A605960012159605A60704700BF29
S3150000070C00C000407FB50C4A0C4B0D48CDE90023C8
S3150000071C40F60F710023CDE902134FF4614201211B
S3150000072CCDE9042306F070FD684608F03FFDFFF79F
S3150000073CDDFF07B05DF804FB00C00040020B020AA7
S3150000074C00350A007047000008B50349012010F077
S3150000075C93FD002008BD00BF4A47030008B50349B6
S3150000076C012010F089FD002008BD00BF5D47030085
S3150000077C08B50349012010F07FFD002008BD00BF1D
S3150000078C6B4703000020704700207047002070471D
S3150000079C00207047704700000149012010F06CBD25
S315000007AC7A47030010B50B49012010F065FD0DF0DA
S315000007BC8BFD022809D10AF0DDF8BDE8104003468E
S315000007CC054A0649012010F057BDBDE810400BF054
S315000007DCCBBF00BF854703000D8603009647030079
S315000007EC0149012010F048BDB747030008B505497B
S315000007FC012010F041FD044A1378B3FA83F35B0928
S3150000080C137008BDC7470300BD3A002001490120FB
S3150000081C10F032BDD84703000149012010F02CBD61
S3150000082CEF47030008B50349012010F025FD002011
S3150000083C08BD00BF0548030008B50349012010F0A8
S3150000084C1BFD002008BD00BF1C48030010B5064860
S3150000085C012106F0D9FC0023BDE810400422072133
S3150000086C184607F089BE00BF00350A00831E41F604
S3150000087CFF720A3023F8022F83429A81FAD170470D
S3150000088CF8B50A460E46324D3249074601201C463B
S3150000089C10F0F2FC06EB460005EBC0052846FFF708
S315000008ACE5FF2946234600222C46D0B2874203F1A7
S315000008BC040315D8284F002534F8022B0135B4F95A
S315000008CC0A3039460120EDB210F0D6FC062DF3D1D4
S315000008DC062E1CD8DFE806F0151D22272C31360013
S315000008EC13F8035C13F8040C40EA052021F8020BFC
S315000008FC13F8015C13F8020C40EA0520488101321A
S3150000090CD3E7134A18237F213A2003F047FC002033
S3150000091CF8BD124A18237F213B20F6E7104A18230C
S3150000092C7F213C20F1E70F4A18237F213D20ECE77D
S3150000093C0D4A18237F213E20E7E70C4A18237F2116
S3150000094C3F20E2E70A4A18237F214020DDE700BF5B
S3150000095C5E350020314803004948030076350020F7
S3150000096C8E350020A6350020BE350020D635002059
S3150000097CEE35002010B5014600F1A80408461831E2
S3150000098CFFF774FFA142F9D110BD000008B5FFF7BF
S3150000099C5DFFFFF7B7FEFFF71DFD0548FFF7EAFF02
S315000009AC04484FF4FA6115F045FE002008BD00BF5F
S315000009BC5E3500207425002010B51C4C1C49012006
S315000009CC10F05AFC2046FFF7D5FF224618237F214C
S315000009DC3A2003F0E3FB1823E2187F213B2003F0B7
S315000009ECDDFB04F1300218237F213C2003F0D6FBFB
S315000009FC04F1480218237F213D2003F0CFFB04F1BC
S31500000A0C600218237F213E2003F0C8FB04F1780214
S31500000A1C18237F213F2003F0C1FB182304F1900219
S31500000A2C7F21402003F0BAFB002010BD5E3500206C
S31500000A3C5148030010B50DF047FC0228044613D1AB
S31500000A4C0FF096FC0122094B0471062110460FF09B
S31500000A5C1FFC0FF057FC064A0649044603460120C4
S31500000A6C10F00AFC204610BDFF24FBE7914A030058
S31500000A7C61480300DBBE030010B50DF025FC02280F
S31500000A8C044613D10FF074FC094B047100220621A5
S31500000A9C01200FF0FDFB0FF035FC064A0649044613
S31500000AAC0346012010F0E8FB204610BDFF24FBE7AF
S31500000ABC914A030061480300DBBE030037B50223ED
S31500000ACC044600931222034640F2012101200FF046
S31500000ADCB7F9B4F9002004490546012010F0CCFB07
S31500000AEC284603B030BD00BF7248030010B586B06F
S31500000AFC02240023ADF80E00ADF8163000940DF16B
S31500000B0C0E03122240F2012101200FF03BF9009452
S31500000B1C0DF11603122240F2012101200FF090F97B
S31500000B2CBDF81620BDF90E309A42044606D1064988
S31500000B3C012010F0A1FB204606B010BD0349012090
S31500000B4C10F09AFBF7E700BF874803008E480300B6
S31500000B5C13B541F6FF730C4601200A49ADF8063071
S31500000B6C10F08AFB0DF10600FFF7A8FFBDF8060092
S31500000B7C04EB840400EB440000B2FFF7B7FF00203F
S31500000B8C02B010BD9F48030073B501260346044608
S31500000B9C00961C2240F2012130460FF051F92278C2
S31500000BAC03490546304610F067FB284602B070BD77
S31500000BBC8748030030B587B0012400238DF80F0059
S31500000BCC8DF817301C220DF10F0340F20121009411
S31500000BDC20460FF0D7F80DF117031C22009440F2B3
S31500000BEC012120460FF02CF99DF817309DF80F20A7
S31500000BFC9A42054606D10649204610F03DFB28468A
S31500000C0C07B030BD0349204610F036FBF7E700BFAE
S31500000C1C874803008E48030008B50449012010F0EC
S31500000C2C2BFB0020FFF7C6FF002008BDB0480300D1
S31500000C3C08B50449012010F01FFB0120FFF7BAFF8D
S31500000C4C002008BDBF48030073B5012603460446C1
S31500000C5C0096252240F2012130460FF0F1F8227859
S31500000C6C03490546304610F007FB284602B070BD16
S31500000C7C8748030073B541F6FF73044600250DF152
S31500000C8C0500ADF806300E468DF80550FFF7DCFF73
S31500000C9C9DF80530012B23D11448BDF9062004EB31
S31500000CAC440400EBC404062334F8021BB1420DD8ED
S31500000CBC013B13F0FF03B4F90A204FF00105F3D101
S31500000CCCADF80620BDF9060002B070BD0DB1ADF849
S31500000CDC0620BDF906200649012010F0CDFAF1E7F1
S31500000CEC0DF10600FFF7EAFEECE700BF5E350020CB
S31500000CFC7248030030B587B0012400238DF80F002D
S31500000D0C8DF8173025220DF10F0340F201210094C6
S31500000D1C20460FF037F80DF117032522009440F208
S31500000D2C012120460FF08CF89DF817309DF80F2006
S31500000D3C9A42054606D10649204610F09DFA2846E9
S31500000D4C07B030BD0349204610F096FAF7E700BF0E
S31500000D5C874803008E48030073B5012603460446F4
S31500000D6C0096092240F2012130460FF069F82278EC
S31500000D7C03490546304610F07FFA284602B070BD8E
S31500000D8C8748030030B57B4C85B000230293ADF841
S31500000D9C0C302378022B74D0774B8022DA60FFF765
S31500000DAC6BFE01237F223921204603F0B3F9237809
S31500000DBC7BB3724818237F223A2103F0ABF97048B3
S31500000DCC18237F223B2103F0A5F96E4818237F22B6
S31500000DDC3C2103F09FF96C4818237F223D2103F038
S31500000DEC99F96A4818237F223E2103F093F9684843
S31500000DFC18237F223F2103F08DF9182365487F22A3
S31500000E0C402103F087F96448FFF758FE022323704C
S31500000E1C30E05A4A18237F213A2003F0BFF9584A8A
S31500000E2C18237F213B2003F0B9F9564A18237F215A
S31500000E3C3C2003F0B3F9544A18237F213D2003F0DC
S31500000E4CADF9524A18237F213E2003F0A7F9504AE8
S31500000E5C18237F213F2003F0A1F94E4A18237F2146
S31500000E6C402003F09BF9012322467F213920237071
S31500000E7C03F094F949484FF4FA6115F0DBFB05B021
S31500000E8C30BD02A8FFF70EFB18B14549012010F042
S31500000E9CF3F9444804F026FA044618B142490120F5
S31500000EAC10F0EAF9414B1A7812B384B93D4A93789B
S31500000EBC507803EB830303EB830300EB83000123DE
S31500000ECC0093224603230A2180B2FFF775FB384CA8
S31500000EDC2046FFF759FE2378364C7BB92378002B36
S31500000EECC8D1254B8022DA60FFF7C6FD01238EE7B9
S31500000EFCBDF80800009207230A21E6E700232370B9
S31500000F0C284B254D5A7899782B4C3C2000FB012117
S31500000F1C187AFFF7AFFE41F6FF73984218BF288088
S31500000F2CB5F900202549012010F0A6F92046FFF757
S31500000F3C13FFB5F90030BDF808200A214A4303F126
S31500000F4C310191420ADA23781BB90B4B8022DA6005
S31500000F5C90E7102B8ED1FFF78FFD8BE7323B9A4231
S31500000F6C88DA23780BB9164BF0E7102B82D1FFF7F2
S31500000F7C61FD7FE77F3B002000A000445E3500202A
S31500000F8C763500208E350020A6350020BE35002093
S31500000F9CD6350020EE3500204A210020742500208D
S31500000FACCD4803009C270020DE480300BD3A0020F4
S31500000FBC21380020F73A002022380020ED480300A3
S31500000FCC00A0004630B587B0012400238DF80F0031
S31500000FDC8DF8173009220DF10F0340F20121009410
S31500000FEC20460EF0CFFE0DF117030922009440F2B5
S31500000FFC012120460EF024FF9DF817309DF80F2096
S3150000100C9A42054606D10649204610F035F928467F
S3150000101C07B030BD0349204610F02EF9F7E700BFA4
S3150000102C874803008E48030030B5102289B0054668
S3150000103C00210DEB020033F009FB3249012010F0C0
S3150000104C1BF92B685A8840F201239A4257D1EB7C44
S3150000105C012B54D1AC68E378022B01D0042B4ED172
S3150000106C207900284BD16279022A49D1A379643BB5
S3150000107C032B1FD8DFE803F002252E3E207DA27A33
S3150000108C237B21894FF4616568430390A07C029011
S3150000109C207C0190A07B009004A803F0FDFF024683
S315000010AC18B11949012010F0E7F804A804F0FAF871
S315000010BC024608B9012023E01449012010F0DCF89F
S315000010CCF8E7247A1CB92046FFF714FEF2E7012C48
S315000010DCF0D1F8E70E4B8022DA60FFF7CDFCAB6857
S315000010EC1C7A1CB92046FFF76DFFE3E7012CE1D112
S315000010FC1020F8E7B4F90800FFF7F8FCDAE700204F
S3150000110C09B030BD02490300134903002649030008
S3150000111C00A00044C37B10B523B9C47C14B9FFF7F7
S3150000112C13FB00B98124204610BDC37B10B563B9EF
S3150000113CC47C54B9017D82898B1C9A4208D3806881
S3150000114C0FF01AFC09F096FC00B98124204610BD5C
S3150000115C8024FBE708B5C37B1BB9C37C1BB1012BF1
S3150000116C0FD0812008BD017D82898B1C9A420BD33E
S3150000117C80680FF001FC0AF0B7FC0028F1D00020C3
S3150000118CF0E70AF0CBFCF8E78020EBE708B5C37B69
S3150000119C1BB9C37C1BB1012B07D0812008BDFFF7FF
S315000011AC3BFD0028F9D00020F8E7FFF741FDF8E7F2
S315000011BCC37B10B51BB9C37C1BB1022B13D081208A
S315000011CC10BD017D8289CB1C9A420FD38068445C8A
S315000011DC01310FF0D1FB01462046FFF723FB002817
S315000011ECEDD00020ECE7FFF727FBF8E78020E7E7D8
S315000011FCC37B10B59BB9C37C042B10D8DFE803F076
S3150000120C0311202C2F00037D81899A1C914229D32E
S3150000121C8268591CD05C5156FFF79AFC20BB812082
S3150000122C10BD047D8289E31C9A421BD38068A21CE4
S3150000123C611C825C415C0344005DFFF721FBEDE71A
S3150000124C037D81899A1C91420CD38268591CD05C0F
S3150000125C515CFFF783FAE1E7FFF7AEFBDEE7FFF73A
S3150000126C87FADBE78020DBE70020D9E710B5437D62
S3150000127C012B044615D10368028A598858790DF05A
S3150000128CCFFD70B123685B88062B50D00A2B4ED04D
S3150000129C032B01D0C32010BD2046BDE81040FFF73C
S315000012AC44BF637D002BF5D12368228A598858796F
S315000012BC0DF0ADFD0028EDD023685B88092B19D8FD
S315000012CC092BE7D801A252F823F000BF1313000034
S315000012DCA1120000A11200001D130000A1120000B3
S315000012ECA112000027130000A1120000A112000099
S315000012FC3113000040F201229342CBD12046BDE8C7
S3150000130C1040FFF775BF2046BDE81040FFF702BF3F
S3150000131C2046BDE81040FFF71DBF2046BDE8104033
S3150000132CFFF734BF2046BDE81040FFF741BF8120D0
S3150000133CB1E700BF704701207047012070470120BC
S3150000134C7047B520704770470020704700207047E3
S3150000135C002070470020704700207047012070471E
S3150000136C01207047B5207047002070470020704759
S3150000137C00207047704700207047B52070477047B3
S3150000138C70478420704770477047704770477047A6
S3150000139C70477047704701207047000002460249AB
S315000013AC01200FF069BF00BF394903007047704731
S315000013BC0120704770B50C460C491E46031E154697
S315000013CC4FF001000A4A08BF0A460A490FF054FFBB
S315000013DC3246094901200FF04FFF2B46224607499A
S315000013ECBDE8704001200FF047BF00BF6149030004
S315000013FC70CA03006E49030094490300AA4903000E
S3150000140C00207047034B1B681878012808BF022080
S3150000141C704700BFB8280020704700207047002096
S3150000142C704700207047002070477047B520704702
S3150000143C0020704700207047704770477047704710
S3150000144C704700207047B52070477047704770474B
S3150000145C7047704770477047094A0023FF21137085
S3150000146C82F8783082F8653082F8773082F87930F5
S3150000147C82F87A1082F87B30024A1360704700BFFC
S3150000148CC7390020282B0020044B184490F86630EE
S3150000149C90F86500181AC0B2704700BFC739002013
S315000014ACF8B5214C94F87B201044C2B21046224465
S315000014BCFFF7EAFF1D4B92F865501E784FF0000CB3
S315000014CC0746254460465FFA8CF2974224D96B781E
S315000014DC11B10AB92D2B17D0782B21D0582B05D149
S315000014EC08B137220AE0013A012A16D9602B19D81D
S315000014FC402BF6D83A2B34BF302200229B1ADBB293
S3150000150C9E4205D900FB06300CF1010C0135DAE7D9
S3150000151C052384F879300020F8BD10260020F3E767
S3150000152C0028E0D05722E9E7C739002084210020A3
S3150000153C2DE9F0470D468F680A683A490446202083
S3150000154C02F0E0FF6B68ABB93749202002F0DAFFF6
S3150000155C20200BF00BFBEA681AB13449202002F06C
S3150000156CD1FF3349202002F0E1FFBDE8F0472020EF
S3150000157C0BF0FCBA002CEBD0EB681BB12D492020EC
S3150000158C02F0C0FFDFF8D880DFF8D890DFF8D8A0DB
S3150000159C013F002617F8014F24B92549202002F0F7
S315000015ACC5FFD5E72B691BB14146202002F0AAFFE7
S315000015BC752C24D0762C24D0772C24D0732C24D0C4
S315000015CC722C24D0712C24D0622C24D06E2C24D0D6
S315000015DC2A2C24D01849194B212C18BF1946202027
S315000015EC02F090FF212CD5D02B692BB153F8262075
S315000015FC1349202002F086FF0136F6B2CAE74946A7
S3150000160CEDE75146EBE70F49E9E70F49E7E70F49E5
S3150000161CE5E70F49E3E70F49E1E70F49DFE70F4934
S3150000162CDDE700BF6EBD03000F5503004C4A0300F7
S3150000163C914A03003C4A0300F0490300394A03006F
S3150000164C464A0300224A0300D94903002E4A0300E6
S3150000165CCE490300E34903000E550300ED49030090
S3150000166CC0D903000B4A0300164A0300FFF7F4BE69
S3150000167C034B93F8770093F87B30C01AC0B27047CF
S3150000168CC73900200021FFF70BBF000010B50A4B2D
S3150000169C93F87B20024453FA82F292F865201344A5
S315000016AC5C78A4F12D0359425941FFF7F9FE2D2C14
S315000016BC08BF404210BD00BFC739002038B50A4DDF
S315000016CC95F87B20C4430244D2B2E40F21B11046F4
S315000016DCFFF7DAFE001B087045FA82F292F86500F5
S315000016EC04440248204438BDC7390020C8390020BC
S315000016FC2DE9F3410E460DF1070115461C46FFF781
S3150000170CDDFF9DF80730AB4288BF8DF807509DF87A
S3150000171C077080460CB1EC1BE4B222460021304621
S3150000172C32F094FF3A464146301932F075FF38468E
S3150000173C02B0BDE8F08138B508220C460123FFF74C
S3150000174CD7FF04F10803621E043413F8011D12F8C6
S3150000175C015F1D70A3421170F7D138BD38B5014633
S3150000176C05460120FFF7E4FED5E901436CB91C469A
S3150000177C084D236863B12946202002F0C3FE21469A
S3150000178C0020FFF7D5FE1434F3E71B786E2BEFD051
S3150000179C38BD00BFC0D9030008B50449202002F0AB
S315000017ACB1FEBDE8084020200BF0E0B9524A030018
S315000017BC10B5FFF7F1FF054C236803B910BD2146A0
S315000017CC0020FFF7B5FE1434F6E700BF609A03005D
S315000017DC1E4B1F4953F820202DE9F0471D4E2020A3
S315000017EC02F090FE33681BB9BDE8F047FFF7E0BF87
S315000017FCFFF7D2FF184DDFF86880002495F87B3090
S3150000180CE7B2013B9F4204DB3068BDE8F047FFF7C7
S3150000181CA5BF45FA84F34FF0000A93F86590A944E6
S3150000182C3846FFF731FE5FFA8AF3834205D30B493C
S3150000183C202002F067FE0134E0E74B4441465A781B
S3150000184C202002F05FFE0AF1010AE9E7601D002084
S3150000185C924A0300282B0020C7390020C1D9030067
S3150000186C28DE03002DE9F84F824C94F87730002BD4
S3150000187C00F09680804B1B7813F0010F04F10108E1
S3150000188C1BD07E4E0025E8B2FFF7FEFD44FA85F329
S3150000189C024693F86510202041440BF062F931465C
S315000018AC202002F02FFE013594F87720EBB29A42F5
S315000018BCE9D87349202002F025FE94F877A0714AE6
S315000018CC002644FA86F3304693F86590FFF7DCFD64
S315000018DC4FF0000CC14465461768002F50D0013FED
S315000018ECCE4618E023B9002D47D115461432F3E73E
S315000018FC1EF8011BA1F1410BBBF1190F98BF20314A
S3150000190CA3F1410B98BFC9B2BBF1190F9CBF203391
S3150000191CDBB28B42EAD1AEEB0901814217F8013FEB
S3150000192CE0D1002BDFD11546574B1D6094F87B3068
S3150000193C013384F87B30D5E901320136F6B2A3B314
S3150000194C12786E2A30D03F2A23D04FF00009C846B1
S3150000195C4FF0050B072394F87710AA68B14212F8DA
S3150000196C087029D8AFB1424453782A2B11D0212FB5
S3150000197C1CBF032384F879300BE04FF0010CB5E75C
S3150000198CBCF1000F01D1002DCED1022384F87930A1
S3150000199C002594F87900002868D168680EF0F6FCEA
S315000019ACBDE8F84FFFF758BD1A46B24589D8032350
S315000019BC84F879301546ECE7622F30D006D8002F24
S315000019CC52D0212F3AD084F8793037E0732F15D8BE
S315000019DC702FF8D9732F1FD0722F47F6FF7A18BFC6
S315000019EC4FF0FF3A01214846FFF75AFD50454FF09C
S315000019FC070323D9042284F879201FE0A7F1750286
S31500001A0C022AE0D8752F04D0762FE3D14FF6FF7A51
S31500001A1CE8E74FF0FF0AE5E74FF07F0AE2E794F8B4
S31500001A2C7B204A4454FA82F292F86520224452787A
S31500001A3C222A03D07B2A01D084F879B0AA684244C2
S31500001A4C52782A2A94F879201CBF08F101085FFA0B
S31500001A5C88F8002A9DD1212F1FBF013609F10109F3
S31500001A6CF6B25FFA89F976E70322C4E7FFF7B0FE10
S31500001A7C96E700BFC73900208C3A0020C1D9030075
S31500001A8C8F4A0300609A0300282B00202DE9F341AE
S31500001A9C5E4C5F4F06460D464FF0000866B90DF1D9
S31500001AAC070128460BF056F878B1262800F0AA80D4
S31500001ABC012384F879304BE0002D00F0A38016F852
S31500001ACC013B8DF80730013DEDB23A789DF80730B1
S31500001ADC3B700D2A01D10A2BE0D00D2B0CD0A3F1B3
S31500001AEC0A025142514122788846042AD6D8DFE8A8
S31500001AFC02F0051D263C31000121F4E721B1FFF768
S31500001B0CB1FE4FF00108C9E7202B64D0222B07D178
S31500001B1C0223237094F87820642A5ED10623C8E742
S31500001B2C7B2B01D10323F4E70123F2E709B9202B20
S31500001B3CF0D194F87730112B40D10323B9E7222B3F
S31500001B4CF7D00029E6D0052384F879304FF0010848
S31500001B5C04232370B8F1000FA0D094F8790008B1D3
S31500001B6CFFF736FEFFF778FC98E77D2B94F87A00A2
S31500001B7C03D1FF28DDD005239BE7602B13D8402B20
S31500001B8C13D83A2B34BF302200229A1AD2B20F2A1B
S31500001B9C10D8FF280BD002EB0012FF238DF807207C
S31500001BAC84F87A30B6E75722EFE73722EDE784F868
S31500001BBC7A2073E7202B3FF471AFDCE70133DBB2FD
S31500001BCC84F87730234494F8782083F86520002332
S31500001BDC2370002993D1884660E72378012B09D11D
S31500001BEC9DF80730A3F1410119299CBF2033DBB2C4
S31500001BFC8DF80730A3189DF807105970013284F838
S31500001C0C78204BE7404602B0BDE8F081C73900208A
S31500001C1CFB3A002049BA89B24840C0F3031343404B
S31500001C2C180380B258405B0103F4FF5358407047C9
S31500001C3C13F05EBA38B5A0F1430304460A2B32D82A
S31500001C4CDFE803F0060A0A12123131313131110084
S31500001C5CBDE838402BF02CBE2BF0F2FD20B12BF05A
S31500001C6C27FE0028FBD138BD124D28780028FAD162
S31500001C7C01232B700BF006FC462C11D007D8443CE4
S31500001C8C012C0AD90C487A2101F0FEF905E0472C03
S31500001C9CF8D140F6010029F039FB00232B70E2E75E
S31500001CAC40F60200F7E7BDE8384003488C2101F006
S31500001CBCEBB900BFFF3A0020064B03007047704794
S31500001CCC704770477047704770477047704770474A
S31500001CDC70477047704770470020704770477047D1
S31500001CEC00207047704770470020704700207047EF
S31500001CFC704770477047704770477047704770471A
S31500001D0C2DE9F047204EDFF8A090DFF8A0A00024C4
S31500001D1C5FFA84F8404613F003FFFF2805460CD102
S31500001D2C1A493078224602F001FC307801340AF068
S31500001D3C1DFF152CECD1BDE8F087154B59F8242066
S31500001D4C144947B233EA270328BF5346307802F0CA
S31500001D5CEDFB002FE9DA14B1B8F1030F08D10E4BE5
S31500001D6C0E49307815F0010F08BF194602F0DEFB5C
S31500001D7C0A2CDAD10A4B0B49307815F0010F08BF43
S31500001D8C194602F0D3FBD0E7C7210020BB4B03005A
S31500001D9C9FDA0300E34B0300944B03007E4B0300D6
S31500001DACB04B0300A64B0300E44C0300914A03001E
S31500001DBC82B2074B42B11A80000C064B0ABF4FF693
S31500001DCCCE2218801A8070474BF6EF62F3E700BFFD
S31500001DDC44210020462100200B4BB3F90020188823
S31500001DEC002AB8BF80F0620042001A80074AB2F996
S31500001DFC001013880029BCBF83F4805383F00B03B7
S31500001E0C590011805840704744210020462100207B
S31500001E1C034B1870034B1970034B00221A70704752
S31500001E2C4538002044380020F43A00202DE9F74FBD
S31500001E3CDFF8989099F8003006460F46002B41D0F3
S31500001E4C4FF6FB7398423DD8DFF88480DFF884A008
S31500001E5C98F8004000259AF8000050FA85F069467B
S31500001E6CC0B21EF00FFB0822394668465FFA85FBA6
S31500001E7C32F0B4FBF8B95C4698F80030A3420AD1AC
S31500001E8C99F80020631CDBB29A4288F8003004BF34
S31500001E9C002388F800309AF800301C44E4B2394626
S31500001EAC20461EF031FC68B93146204603B0BDE829
S31500001EBCF04F1EF0B5BA99F800200135EBB29A42F4
S31500001ECCC9D8D9E703B0BDE8F08F00BF443800206D
S31500001EDCF43A002045380020024B187800F07F00B9
S31500001EEC704700BF823B0020034B18780130C0B20C
S31500001EFC187000F07F007047823B00201FB5030A64
S31500001F0C8DF80E300323009303AB8DF80D0000F013
S31500001F1CCDF905B05DF804FB1FB5030A8DF80F105B
S31500001F2C04218DF80E30009103AB8DF80D0000F0F6
S31500001F3CBDF905B05DF804FBF0B589B01768BDF8BE
S31500001F4C38509DF83C60CDF809708DF812505768E2
S31500001F5CDDF840C0BDF84440CDF80D702D0A012EB9
S31500001F6C8DF811308DF813508DF8146016D0032EA1
S31500001F7C1BD1DCF80030CDF81530DCF80430CDF888
S31500001F8C19309DF848308DF81D3016230093BDF896
S31500001F9C4C2002AB00F08AF909B0F0BD8DF8154063
S31500001FAC240A8DF816400F23F0E70120F4E71FB53D
S31500001FBC0446084611461A4602238DF80D10009366
S31500001FCC214603AB00F072F904B010BD10B586B013
S31500001FDC14461A460B68CDF80D304B68CDF8113007
S31500001FEC0A230093342103AB8DF8154000F05EF9FB
S31500001FFC06B010BD30B585B00024ADF80A20021D20
S3150000200C92B2012A1D46ADF80840ADF80610ADF89F
S3150000201C044003D94FF6FF72904207D1064A2B466D
S3150000202C127801A91CF084FA05B030BD014601AA4C
S3150000203C20461CF043FBF7E7CE2100202DE9F04F9C
S3150000204C2DED028B87B00C4600901D4617464AB301
S3150000205C104614F013FFC0F3470A2DB3284614F0AC
S3150000206C0DFFC0F34708FFF73FFF009B8DF81000EC
S3150000207C8DF811308DF813401B0A240A0022062114
S3150000208C04A88DF812308DF814408DF815A014F0B4
S3150000209CF1FFADF80E0048B9182007B0BDEC028B65
S315000020ACBDE8F08F9246D8E7A846DCE74FEA4A012E
S315000020BCC9B201F1060B07315FFA81F901EB480150
S315000020CC5FFA8BF3C9B20DF10E0008EE103A15F05B
S315000020DCC8F904460028DFD1834606265FFA8BF141
S315000020EC8A45BDF80E3011D818EE101A424618461D
S315000020FC15F02CFAE6B2B045BDF80E3027D8BDF86F
S3150000210C482000980621FFF775FFC6E7490001F045
S3150000211CFE013846019315F005FA019B024631463D
S3150000212C184615F013FA711FBDF80E300193C9B29B
S3150000213C384615F0F7F9019B711C0246C9B21846D0
S3150000214C023615F003FA0BF1010BF6B2C6E7760070
S3150000215CF6B231462846019315F0E4F9019B024686
S3150000216C4946184615F0F2F9711CC9B22846BDF855
S3150000217C0E7015F0D7F909F101010246C9B23846BD
S3150000218C09F1020915F0E2F901345FFA89F9B1E7B0
S3150000219CF0B589B00E4602A905460CF04DF900289B
S315000021AC7ED0FFF7A1FE8DF8100013F07BFE8DF8A4
S315000021BC110013F077FE3C4A8DF81B501368CDF8CE
S315000021CC13305368CDF81730BDF808308DF81C3035
S315000021DC000A1B0A8DF812008DF81D3000229DF89E
S315000021EC0D308DF81E300F2104A814F043FFADF806
S315000021FC0600002856D000279DF80D30FAB29342FF
S3150000220C16D801231A460DF10E010DF1060014F035
S3150000221C6DFF00279DF80E30FAB2934224D8BDF814
S3150000222C0630324620210020FFF7E4FE09B0F0BD4F
S3150000223C002128460CF02CF901231A4604468DF889
S3150000224C05000DF105010DF1060014F04FFF0123F9
S3150000225C240A1A460DF105010DF106008DF805400C
S3150000226C013714F043FFC7E7012128460CF010F99B
S3150000227C01231A4604468DF805000DF105010DF1F2
S3150000228C060014F033FF0123240A1A460DF105014A
S3150000229C0DF106008DF80540013714F027FFB9E75C
S315000022ACA320C3E71820C1E7753A0020F7B50E4600
S315000022BC9DF8201001911C4617460546FFF714FEA3
S315000022CC019920700022204614F0D4FE034638B142
S315000022DC3A463146284603B0BDE8F040FFF78ABEC1
S315000022EC182003B0F0BD08B5FEF72CFABDE808407F
S315000022FC10F0CEB808B5FFF742F810F0F1F8BDE8CB
S3150000230C084009F077BC08B5FFF73AF808F0EDFB82
S3150000231CBDE8084009F03ABFFEF786BEFFF781B864
S3150000232C0020704738B504460D46FFF791F829464C
S3150000233C2046BDE838400BF053B908F0BDBD08F097
S3150000234CD3BD02220621012010F084BD42220621B3
S3150000235C012010F07FBD41220621012010F07ABD2C
S3150000236C01220621104610F075BD402206210120DF
S3150000237C10F070BD00220621012010F06BBD40222A
S3150000238C0321012010F066BD01220321104610F036
S3150000239C61BD00220321012010F05CBD0222032145
S315000023AC012010F057BD01220021092010F052BD6A
S315000023BC07B50123082269460020FFF799F94FF665
S315000023CCFD71684600F0CAF8FF28024606D1064998
S315000023DC01200EF051FF03B05DF804FB0349012008
S315000023EC0EF04AFFF7E700BF2CA7030048A703002F
S315000023FC07B50123082269460020FFF779F96846DC
S3150000240C00F012F930B9044901200EF035FF03B083
S3150000241C5DF804FB0149F7E765A7030073A7030002
S3150000242C07B50123082269460020FFF761F96846C3
S3150000243C00F076F8FF28024606D1064901200EF078
S3150000244C1BFF03B05DF804FB034901200EF014FFDB
S3150000245CF7E700BF88A7030098A703002DE9F74309
S3150000246C1C49DFF87880DFF8789002200EF004FF24
S3150000247C002634464FF6FF770CF042F9F5B2A84227
S3150000248C0AD80CF03DF9144903462246022003B043
S3150000249CBDE8F0430EF0F0BE28461EF00BF8B8422D
S315000024AC034615D02A46414602200EF003FF284665
S315000024BC69461DF0E7FF01340220E4B20EF0C8FEB7
S315000024CC10B168460EF04AFE494602200EF0D4FEC4
S315000024DC0136D1E7B5A70300CEA70300C3A70300B7
S315000024EC914A030037B50020FFF7CCF804460220CA
S315000024FCFFF7C8F8E4B2054669460120FFF71BF959
S3150000250CAAB26946204600F05BF804490346224607
S3150000251C02200EF0B1FE03B030BD00BFE5A70300EC
S3150000252CF7B5054698B100264FF6FF77F4B220466C
S3150000253C1DF0C0FFB84209D0694620461DF0A2FF27
S3150000254C08226946284632F049F808B11EB1FF2424
S3150000255C204603B0F0BD0126E8E700002DE9F34163
S3150000256C06460F4600254FF6FF78ECB220461DF0C6
S3150000257CA1FF404511D0694620461DF083FF082275
S3150000258C6946304632F02AF858B125B1FF24204668
S3150000259C02B0BDE8F0810125E7E7314620461EF082
S315000025ACB3F84FF6FD739F4203D0394620461DF013
S315000025BC37FF024A535D01335355E8E7463800208E
S315000025CC0128F8B50546164612D80B4F3B5C8BB95D
S315000025DC1EF09AF8044638B94FF6FD739E4203D0A6
S315000025EC314628461DF01CFF01237B552046F8BDBD
S315000025FC6A24FBE77624F9E746380020012808B55B
S3150000260C0ED8084A135C2BB94FF6FF711DF008FF64
S3150000261C002008BD013BDBB21354002BF8D1F3E7C5
S3150000262C6A20F6E74638002008B5FFF779FFBDE8C3
S3150000263C0840FFF7E3BF01207047012070470120D7
S3150000264C70470000014B00221A707047F82A0020D0
S3150000265C08B5134B00221A70124B197811B11A7067
S3150000266CFEF793FE104B1A78032A0ED8DFE802F019
S3150000267C020E100201220D481A704FF4FA5113F093
S3150000268CD9FF28F083FE0A4B188008BD02221A7067
S3150000269C064B00221A70BDE80840FEF777BE00BF55
S315000026ACF82A00205C210020BC390020D82A002002
S315000026BC6831002013B528F069FE134B134A1B88AA
S315000026CCC01A00231370124A1370124B1A78012A7F
S315000026DC80B205D0012201901A70FEF755FE0198C2
S315000026EC0D4CB0F5FA5F09D32178B1FA81F149099D
S315000026FCFEF752F80323237002B010BDFEF752F812
S3150000270C064813F08BFFF5E768310020E02A00201D
S3150000271CD82A00205C210020BC390020F82A002091
S3150000272C08B5144B00221A70134B197811B11A7094
S3150000273CFEF72EFE114B1A78032A0ED8DFE802F0AC
S3150000274C020E100201220E481A704FF4FA5113F0C1
S3150000275C71FF28F01BFE0B4B188008BD02221A7065
S3150000276C07484FF4FA6113F065FFBDE80840FEF721
S3150000277C10BE00BFF82A00205D210020BE390020C3
S3150000278CE82A00206A31002013B528F0FFFD134B10
S3150000279C134A1B88C01A00231370124A1370124B6B
S315000027AC1A78012A80B205D0012201901A70FEF720
S315000027BCEEFD01980D4CB0F5FA5F09D32178B1FA0C
S315000027CC81F14909FEF70CF80323237002B010BD02
S315000027DCFEF70CF8064813F021FFF5E76A310020E6
S315000027ECF02A0020E82A00205D210020BE390020B6
S315000027FCF82A002005280BD10C4B01291B7803D194
S3150000280C23B90B4813F00ABF002BFAD10948F9E794
S3150000281C06280AD1084B01291B7802D11BB9074897
S3150000282CF0E7002BFBD10648ECE77047BB390020DC
S3150000283CD82A0020E02A0020BD390020E82A0020F2
S3150000284CF02A00202DE9F74FDFF8849006460D4656
S3150000285C14461F4603F10C0A4FF0010B15B903B0D1
S3150000286CBDE8F08F102DA846184B28BF4FF0100866
S3150000287C5FFA88F13A4652F8040B43F8040B5245BA
S3150000288CF9D101919AF800201A70114889F80F4075
S3150000289C002389F800B089F80E3001341DF0D2FF00
S315000028AC0B480199E4B2324612F801CB10F8013B01
S315000028BC83EA0C0302F8013C931BDBB29942F3D872
S315000028CCA5EB0805ADB21646C8E700BFA13A002035
S315000028DCA03A00202DE9F74F16460193BDF830902B
S315000028EC0D9B344A00930F468046034600F10C01BB
S315000028FC53F8040B42F8040B8B42F9D12E4C1B787F
S3150000290C13704923237020464FEA1923A37384F8C6
S3150000291C0F901DF097FF237883EA162323706378B4
S3150000292C4FF0020A7340637052464FF0000B1BE0E7
S3150000293CC2F11005A6EB0B039BB2ADB29D4228BFAC
S3150000294C1D4600231FFA83FCD018AC45C0B21BD31E
S3150000295C2A44D2B2AB44102A2F441FFA8BFB03D164
S3150000296C20461DF06FFF0022B345E1D312B120467D
S3150000297C1DF068FFBAF1010F4FF000020ED0019F57
S3150000298C4FF0010A4E46D0E717F803C014F800E0E2
S3150000299C8CEA0E0C04F800C00133D3E700992368C7
S315000029AC00980B604346042103B0BDE8F04FFFF7D7
S315000029BC49BF00BFA13A0020A03A0020F7B5099FF5
S315000029CCBDF82050CDE9005706461C46FFF782FF9E
S315000029DC2DB13346012229462046FFF733FF00204E
S315000029EC03B0F0BD2DE9F743BDF82890DFF83C8025
S315000029FC1D4604460E4617460346494628460122FE
S31500002A0CFFF720FF2B463A4631462046CDE9009883
S31500002A1CFFF760FF0B980422414631F0DFFD0028DA
S31500002A2C14BF7E20002003B0BDE8F083C13900201E
S31500002A3C73B51C46044D8B181E592E60CDE9004506
S31500002A4CFFF7D0FF02B070BD483B00200020704756
S31500002A5C0020704700207047704770472DE9F341FE
S31500002A6C0C4E0D4DDFF838800C4F002456F8043B05
S31500002A7C0BB9D8F8003035F8022B009239462246AD
S31500002A8C012001340EF0F8FB292CEFD102B0BDE881
S31500002A9CF08100BF5C200020DE320020FAA7030084
S31500002AAC1021002008B5FFF7D9FFBDE8084000F05B
S31500002ABCF7B8000007B50020FEF7E4FDC2B2282ADD
S31500002ACC0DD8084B53F822300BB9074B1B68074936
S31500002ADC31F812100091012005490EF0CDFB03B020
S31500002AEC5DF804FB5C20002010210020DE32002063
S31500002AFCFAA70300FFF7B2BF7047000038B50020F5
S31500002B0CFEF7C0FD04460120FEF7BCFD054905464F
S31500002B1C01200EF0B1FBA9B2E0B2BDE8384000F0DE
S31500002B2CD7B800BF05A803002DE9F3410C4E0D4D97
S31500002B3CDFF838800C4F002456F8043B0BB9D8F854
S31500002B4C003035F8022B009239462246012001341A
S31500002B5C0EF092FB292CEFD102B0BDE8F08100BF3C
S31500002B6C5C20002030330020FAA70300102100203F
S31500002B7CF7B502AB03E906000446174612F014FE3D
S31500002B8C0646204612F020FE9DF800508EB1202CF1
S31500002B9C0FD83B78012B33D803EB43133949234425
S31500002BAC4FF6FF7031F81320824202D0013221F821
S31500002BBC1320354B354E33F8140036F814104FF6F7
S31500002BCCFF7290421CBF421C23F8142004F0FD0235
S31500002BDC092A2DD19A8AB68A2A44B242B4BF9A825D
S31500002BEC9E8233F814308B422DD2294B002513F8D4
S31500002BFC012B94422DD00135112DF8D103B0F0BD27
S31500002C0C022BD6D11F4B33F814104FF6FF7291429C
S31500002C1C04F121021CBF013123F8141033F81210F1
S31500002C2C4FF6FF7081421CBF013123F81210C0E72A
S31500002C3C1D2CD6D15A8F56198E4203DA013A2A44E4
S31500002C4C5A87CEE759878842CFD22046FEF7A2FB99
S31500002C5CCBE72BF0B0F80F4B1B788342044603D816
S31500002C6C0D48DD2100F010FA04EB04140B4A2C4439
S31500002C7C4FF6FF7132F814308B42BFD0013322F875
S31500002C8C1430BBE782330020DE32002030330020C4
S31500002C9C71AB0300A2210020EDAA0300063400202C
S31500002CAC02485222002131F0D1BC00BFDE32002096
S31500002CBC02485222FF2131F0C9BC00BF303300203C
S31500002CCC08B5FFF7EDFFBDE80840FFF7F1BF0000C0
S31500002CDC014B23F8101070473033002010B5104C00
S31500002CEC1049A161032321660F491022C4E904335C
S31500002CFC0E4BE361C4E9191200230D49A362E01DD2
S31500002D0C6362E3622367E3666367226231F0B0FCB9
S31500002D1C0849204631F0ACFC2023A37110BD00BF3E
S31500002D2C0024002082AB0300233800203338002017
S31500002D3C8BAB03008FAB03002DE9F84FDFF87C80DB
S31500002D4C98F800308246894616460BB9FFF7C6FF3F
S31500002D5C182707FB0A873D6FD7F86CB05D452BD952
S31500002D6CBC6E796E641BB44228BF3446294448466F
S31500002D7C224631F043FCBB6E2544A144361BAB42C4
S31500002D8C08BF0025ABEB0502964228BF164656B186
S31500002D9C182303FB0A833246596E4846294431F000
S31500002DAC2DFC3444354424B1182000FB0A88C8F89D
S31500002DBC70502046BDE8F88F0024E3E7002400207D
S31500002DCC37B50446CDE9002104F073FEDDE9002198
S31500002DDC05462046FFF7B0FF0446284604F06FFE72
S31500002DEC204603B030BD00002DE9F843134C1E46B7
S31500002DFC23788146884617460BB9FFF76FFF04F018
S31500002E0C58FE61690D4A0025536E3BB10135A94246
S31500002E1C02F11802F8DC4FF0FF350AE0A942FADDA0
S31500002E2C182202FB0544C4E91898A7662367E366D3
S31500002E3C666704F044FE2846BDE8F88300240020AB
S31500002E4CFFF74CBF012270B51146042004F07CFC40
S31500002E5C1C4B1D4DD3F8F0201C4842F00102C3F860
S31500002E6CF020D3F8FC204FF0604442F08072C3F897
S31500002E7CFC20174BC4F8B03F00260223C4F8006EA2
S31500002E8CC4F8806EC5F8F03004F00AFB00F5D520C6
S31500002E9C104B114A00F2FC40B0FBF3F00F4B01381B
S31500002EAC2861C4F8406E1A600D4BC4F8803E4FF48E
S31500002EBC8073C5F80433D4F8003E43F48073C4F829
S31500002ECC003E70BD00ED00E0000004E006000E00C0
S31500002EDC55CEACC5F8590D00FF030040001000E0BC
S31500002EEC0D00010010B50121124804F08DF9124BAA
S31500002EFC0124C3F81048002005F0ECFA23460422FE
S31500002F0C0221052005F038FB204610F05FFFFFF785
S31500002F1C99FF10F05FFF094B1C70FFF791FF2346DA
S31500002F2C074908484022FFF75FFF074B1860C00FA0
S31500002F3C10BD00BF00350A0000801442503A002034
S31500002F4C083B002096AB0300801F0020034BD3F8F0
S31500002F5CF000003818BF0120704700BF00ED00E0FC
S31500002F6C054A4170D12303701378C370090A817026
S31500002F7C591C1170042070474D3B00202DE9F74F6A
S31500002F8C91F80080B8F1040F82460F465FD928F0FD
S31500002F9CFDF908F10505DFF8C0900190EDB24FF68A
S31500002FACFF760024D9F8F0200AB1A54207D8281BD1
S31500002FBC18BF012004233B7003B0BDE8F08F28F046
S31500002FCCE5F9019BC01A80B2B0F5FA7F41D8A4B3DB
S31500002FDC012C36D0EA1E04F1010B94425FFA8BFBEE
S31500002FEC19D1F4B24FF06042D2F8801ECB0710D53F
S31500002FFCD9F8FC1041F08071C9F8FC10D2F8001E0B
S3150000300C41F48071C2F8001E116A0029F0D082F8D2
S3150000301C20405C46C6E7AA1E944202D1C6F307249A
S3150000302CE0E76A1E944210D05444314614F8024C20
S3150000303C2046FEF7EFFD0646D4E75B244FF0010B66
S3150000304CD0E744464FF0020BCCE75D24CAE70020DC
S3150000305CB0E70120AEE700BF00ED00E000B5084B7D
S3150000306C91B0186840226946FFF7AAFE20B1C2B299
S3150000307C694612202AF080FD11B05DF804FB00BFF2
S3150000308C801F002042DE704738B504460D4612F00C
S3150000309C3FF800F0C1FD04F004FD294620462AF055
S315000030AC37FD06492B462246202009F065FD2946A8
S315000030BC2046BDE83840FFF7E5BF00BFA6AB0300CE
S315000030CC6D4B2DE9F0416D4C5A68A2655A6AE26562
S315000030DC6B4AD2F800122166D2F8042262669A6A0A
S315000030ECA266DA6AE2661A6B22675A6B6267DB6B58
S315000030FCA26BA367D4E90F3512F0040F08BF1D4667
S3150000310C28F028F9002285420346606522655CD3C7
S3150000311C5C4A954259D8AA696264E969A164B4F813
S3150000312C5810C1F30801062953D157498A4250D386
S3150000313C56498A424DD211884DF64262914248D187
S3150000314C6268C4F89420A268C4F8982040F2017012
S3150000315C4F4A934238BF13464E4A93423CD3D31A36
S3150000316CE3640023C4E91F33C4E92133C4E92333E0
S3150000317C484EDFF814C1DFF814E1AE4232D8D4E978
S3150000318C1FC7D4E92165D4E923124FF0000E013B89
S3150000319CDBB2FF2B41D1BEF1000F05D0C4E91FC72E
S315000031ACC4E92165C4E92312B4F85830C3F3080303
S315000031BCDA1E0F2A55D8DFE802F05B3A474A545418
S315000031CC5454545154545454543E0022C4E91122BC
S315000031DC1D464FF42060BBE71968B1F1CD3FBED157
S315000031EC0433BAE756F8042D6245C6D37245C4D2E9
S315000031FCD107C2D5284F002157F8048B9045BCD077
S3150000320C0131C9B20629F7D10BB9052301E0013BFF
S3150000321CDBB204EB8301CA67AFE7E0464FF0010E61
S3150000322CBC4637462E460D4611464246AFE740F69B
S3150000323C0220BDE8F081194BDB6913F0020F40F256
S3150000324C025318BF1846F4E740F60320F1E740F6A0
S3150000325C0423B0F5206F08BF1846EAE740F60520B0
S3150000326CE7E7013B40F60722412B98BF1046E0E703
S3150000327C40F60120DDE700BF00ED00E00000002075
S3150000328C00E100E0201A002024030000B0460300F1
S3150000329C9C000020401A00207C00002000200540E5
S315000032AC052804D006280CBF0120022070470020F8
S315000032BC704700002DE9FF474FF48073ADF80C30D2
S315000032CC01F0E4FB1848194FDFF86890012103F070
S315000032DC9BFF1748012103F097FF0DF10C08022400
S315000032EC012618F8013B17F8335007EBC3030122EC
S315000032FCD3F804A028460023514605F03DF949466B
S3150000330C5FFA8AF001F0DAFBCDE90066012352463A
S3150000331C5146284605F0EAF8012C02D104B0BDE866
S3150000332CF0870124DDE700BF40410500BCAB03007C
S3150000333C00350A00C933000008B5FFF7B1FF0228B3
S3150000334C16BF024B0020185C08BD00BFBF39002019
S3150000335C08B5FFF7A5FF02281CBF014B195408BD81
S3150000336CBF39002008B5FFF79BFF022805D0034A9A
S3150000337C135CB3FA83F35B09135408BDBF39002001
S3150000338C08B5FFF78DFF022811D00A4A12F8303023
S3150000339C30214B4302EBC00007491944436803EB49
S315000033ACC1039B001868B0FA80F0400908BD0020E4
S315000033BCFCE700BFBCAB03001CA0100270B50446B2
S315000033CCFFF7DEFF0146002520460E46FFF7D8FF25
S315000033DCB0420146F7D10135052DF5D12046FFF750
S315000033ECABFF8842204609D0FFF7B2FF2046FFF715
S315000033FCA3FF014620460AF0B7FE70BDFFF7B2FFE9
S3150000340C2046FFF799FF014620460AF0ADFE2046FE
S3150000341CFFF7A8FFEAE7000010B505F077FB0446B6
S3150000342C05F06EFB0022012101FA02F3234014D0B1
S3150000343C1D4B1E4933F81230062B14D040F20722CE
S3150000344C93420DD11A4A1B481468844208D14CF297
S3150000345C3C33538013880B8015E00132112AE3D1DB
S3150000346C124A13800FE0124A50884FF20F0398420B
S3150000347C16D11388B3F5406F28BF4FF4C0630B8089
S3150000348C4CF23C335380094B1A8840F201739A4232
S3150000349C01BF094A094BD2E90001C3E9000110BD7D
S315000034AC4FF4C063EBE700BFCCAB0300283500201C
S315000034BC0000002007020FF094000020982D002039
S315000034CC014B1888000A704728350020014B1888D4
S315000034DC704700BF283500202DE9F04F4D4DAB6BE2
S315000034ECD5F850B0D5F840A05A074FBF0027D5F8ED
S315000034FC4CB0D5F85480D5F83CA05ABF464FDFF8EF
S3150000350C4091DFF84091454A48BFB84613F0080F82
S3150000351C434B18BF1A46B7EB08061CBF7308642149
S3150000352C87B01FBF01FB0B33B3FBF6F39BB20593BE
S3150000353C3C49CDF800804B46CDE9017A08BF05968B
S3150000354C044600F0F3FFB3B2CDE900933649059B70
S3150000355C1FFA8BF2204600F0E9FFAB6B5B070AD42F
S3150000356C9C3E5E4507D16A6D304B9A4203D2304978
S3150000357C204600F0DBFFBA4501D8C24504D22D49DE
S3150000358C4A46204600F0D2FF204609F0EFFAD5E96C
S3150000359C1823134337D02849DFF8AC80DFF8AC90FA
S315000035AC204600F0AFFF002601272A6E07FA06F325
S315000035BC134207D058F8262013781BB149462046EB
S315000035CC00F0A0FF0136202EEFD1DFF87C80DFF86B
S315000035DC7C90002601276A6E07FA06F3134209D07F
S315000035EC08EB8603D3F8802013781BB14946204696
S315000035FC00F088FF0136122EEDD1204607B0BDE84B
S3150000360CF04F00F08DBF0D49204607B0BDE8F04FD6
S3150000361C00F08CBF00000020401A0020FAAB03001B
S3150000362CF3AB030002AC030030AC03009C0000209B
S3150000363C69AC030095AC0300B3AC0300E2AC030029
S3150000364CEEAB0300ECC603009CB503006DBD030096
S3150000365C2DE9F8430446FFF739FF40F60523984257
S3150000366C0ED8B0F5206F0DD840F20253984217D001
S3150000367C40F2017398421ED040F2015398420AD090
S3150000368CBDE8F883A0F602205F4D03281FD8DFE8BB
S3150000369C00F0386598B55D49204600F047FF11E00B
S315000036AC5B49204600F042FF574B5A6C594920465D
S315000036BC00F03CFF06E0544A5749D2E92523204640
S315000036CC00F034FF2046BDE8F84309F04FBA5349E1
S315000036DC204600F02BFF95F86C309F0703D5504918
S315000036EC204600F023FF95F86F305E0603D54D4952
S315000036FC204600F01BFF95F96F30002BE2DA4A49A1
S3150000370CCAE74A49204600F011FF95F86830980739
S3150000371C04D06A6C3F49204600F008FF95F96830E2
S3150000372C002B04DA6A6F4249204600F0FFFEDFF8F0
S3150000373C0C81DFF8189100260127AA6E07FA06F30A
S3150000374C134207D058F8262013781BB14946204659
S3150000375C00F0ECFE0136082EEFD1B3E735492046D2
S3150000376C00F0E4FE2B496A6C204600F0DFFE95F86B
S3150000377C6930590703D53049204600F0D7FE95F934
S3150000378C6930002B04DA6A6F2949204600F0CEFE18
S3150000379C2A4FDFF8B8800826AB6EF340DA0707D558
S315000037AC57F8262013781BB14146204600F0BEFE82
S315000037BC0136102EF0D195F86830002B82D12049B5
S315000037CC6AE720491D4FDFF88480204600F0AEFEE4
S315000037DC6A6C1049204600F0A9FE1026AB6EF34029
S315000037ECDB0707D557F8262013781BB14146204630
S315000037FC00F09CFE01361A2EF0D163E712492046E2
S3150000380C00F094FE6A6C51E700000020F7AC030050
S3150000381C34AD030064AD03007DAD030097AD03002A
S3150000382CAFAD0300E9AD03001CAE030058AE0300B8
S3150000383C7DAE0300A1AE0300B8AE030034B50300A1
S3150000384CFEAE03002EAF030047AF030099AE030094
S3150000385C2DE9F84F164DDFF86080DFF860A0DFF831
S3150000386C60900446002658F8043B2A4651462046EA
S3150000387CF7B200F047FE2A78AB460135002AFAD19A
S3150000388C9BF8012092B10B4907F00307032F08BFE1
S3150000389C4946204600F036FE204609F067F99BF8AB
S315000038AC01300136002BDED1BDE8F88F4946F0E732
S315000038BC64B60300E6C903000400002068AF0300E9
S315000038CC8F4A030000F00CB800F00AB800F008B8F4
S315000038DC00F006B800F004B800F002B800F000B82A
S315000038EC72B61EF0080F09D01EF0040F0DD0DFF8CB
S315000038FC50E0AEE8FF1F6FF002000CE0DFF840E08E
S3150000390CAEE8FF1F6FF00E0005E0DFF834E0AEE81E
S3150000391CFF1F6FF006006946EFF309828EE8070079
S3150000392C86460848084C854501D3A54501D384F342
S3150000393C0888FFF7C5FB84F3088827F0E7FC00002E
S3150000394C0400002020110020401A0020FFF7C6BFFB
S3150000395C10B50B48012103F057FC0A48012103F06E
S3150000396C53FC002304220821032004F005FEBDE8C5
S3150000397C1040002304220921032004F0FDBD00BFE2
S3150000398C4041050000350A00064B03EBC0025168A6
S3150000399C01228A4013F8301030235943024B5A50F7
S315000039AC704700BF30B703000CA00046064B03EB74
S315000039BCC002516801228A4013F830103023594353
S315000039CC024B5A50704700BF30B703000CA000449E
S315000039DC10B10020FFF7D8BFFFF7E8BF37B5154683
S315000039EC7F2D1A464BF2346308BF002599420446D4
S315000039FC19D17F2241F2020168460823FFF7EEFF38
S31500003A0C28490822684630F0E9FD30B908237F22A0
S31500003A1C41F2F0116846FFF7E1FF6B4603CB2060DD
S31500003A2C616003B030BD41F2F01399421DD11E4BBB
S31500003A3CD3F8F050D3F8F4000021CBB25AB9002ACF
S31500003A4CEFD0E0540133D9B207294FEA102002F126
S31500003A5CFF32F4D9E5E76554013104294FEA1525FF
S31500003A6C02F1FF32E9D10B46E9E701F47043B3F5F5
S31500003A7C805F0AD1C1F30B0404F17E6402FB05419D
S31500003A8C03B0BDE8304030F0B9BD01F46043B3F586
S31500003A9C005FC6D1C1F30B0404F17E6404F58044C7
S31500003AACECE700BFC6B703000081E00F70B5054612
S31500003ABC16461C46DBB14BF23463994210D1082CE6
S31500003ACC28BF08247F2241F202012346FFF786FF16
S31500003ADC07492246284630F081FD40B941F2F011E3
S31500003AEC234632462846BDE87040FFF777BF70BDC7
S31500003AFCC6B703002DE9F8431646C20704460F461F
S31500003B0C03D52848DD21FFF7BFFAF30703D525486F
S31500003B1CDE21FFF7B9FA04F47043B3F5805F21D1C7
S31500003B2CC4F30B0404F17E641F4A731E23449342B0
S31500003B3C254603D91B48E321FFF7A6FADFF8649064
S31500003B4C05EB0608454522D156B372083946204680
S31500003B5C27F063FB20B3BDE8F843124840F20F117F
S31500003B6CFFF792BA04F46043B3F5005F07D1C4F3D0
S31500003B7C0B0404F17E6404F580442546DEE709480F
S31500003B8CEA21FFF781FA6FF00F050024D6E715F846
S31500003B9C013BFF2BD6D0F4214846FFF775FAD1E747
S31500003BACBDE8F88340B70300FF07E00FFFF78ABEB6
S31500003BBC1FB51548154C012103F026FB01221146B1
S31500003BCC104603F0C1FD0421072004F089FF104ABA
S31500003BDC1068516801AB03C3906818600D238DF80B
S31500003BEC0C3001A9032320468DF80D3005F01EFA82
S31500003BFC084B04220221C3F8802161621A60A36A71
S31500003C0C0B43A36204B010BD30253E0000200540D6
S31500003C1CCEB7030000E100E0014805F0FBB900BF98
S31500003C2C00200540A52803D10248002105F0DCB987
S31500003C3C704700BF00200540024B186800F00100D9
S31500003C4C704700BF00200540024A9368002BFCD148
S31500003C5C704700BF002005400020704700207047C9
S31500003C6C7047000013B572B603F01BFF7C4B7D4901
S31500003C7C5B698B6000230B76E0204B768B764023BA
S31500003C8CC876087748778877CB77774B802260247D
S31500003C9C81F8202081F8210081F8220081F8232068
S31500003CAC83F8002383F80143202483F8024383F826
S31500003CBC034383F8042383F8052383F8062383F848
S31500003CCC072383F8082383F8092383F80A2383F848
S31500003CDC0B2383F80C2383F80D2383F80E2383F828
S31500003CEC0F2383F8102383F8112383F8122383F808
S31500003CFC132383F8142383F8152383F8162383F8E8
S31500003D0C172383F8182383F8192383F81A2383F8C7
S31500003D1C1B2383F81C2383F81D2383F81E2383F8A7
S31500003D2C1F2383F8202383F8212383F8224383F867
S31500003D3C232383F8242383F8252383F8262383F867
S31500003D4C272383F8282383F8292383F82A2383F847
S31500003D5C2B2383F82C2383F82D2383F82E2383F827
S31500003D6C2F2383F8302383F8312383F83203CB686F
S31500003D7C23F4E0631B041B0C43F0BF6343F40133D1
S31500003D8CCB604B6943F400734B614B6943F01003F2
S31500003D9C4B614FF4E0234B6207F070F9FFF73CFBE5
S31500003DACEFF30883314A043B4FF0CD31934222D2D4
S31500003DBC2F4A304892B2002130F048FC62B62E4BA6
S31500003DCC01225A642D4BD3F8FC202D4B120E15D123
S31500003DDC4AF6E851C3F89011D3F8981141F0040152
S31500003DECC3F89811C3F89021D3F8642142F4005219
S31500003DFCC3F8642104E043F80419D7E7012AF3D089
S31500003E0C204A136A23F4441343F488131362A2F56D
S31500003E1C80420124136843F480731360184BD3F863
S31500003E2CA42142F4F842C3F8A4211C6107F06AF8F5
S31500003E3C01F0E2FC002368460093ADF804308DF8DF
S31500003E4C034004F0A9F800F0E3F827F0B1FA00F00B
S31500003E5CEDF82AF029FF0C4807F0F8FC02B010BD6B
S31500003E6C0000000000ED00E000E100E0E0100020A2
S31500003E7C14100000A000002000000E400081E00F8E
S31500003E8C00300E4000400E4074BC030040F201604E
S31500003E9C27F03CBAFEF7E0BD08B500210B20FEF773
S31500003EACD9FDBDE80840FEF7D8BD08B1FDF7D2BA7A
S31500003EBCFDF7CFBA032000F0A7B9000008B5FFF74D
S31500003ECCFFFA044B0B289ABF00B203EB800018468E
S31500003EDC08BD00BF22B9030008B5FFF7F7FA044B7B
S31500003EECC0F30F22C0B253F8223003EB800008BD9A
S31500003EFCECB8030010B5FFF7E3FA0446FFF7E6FA51
S31500003F0C10F0FF0005D1012C23D164F07F04E4B23C
S31500003F1C15E0072CF9D801A353F824F04B3F000009
S31500003F2C173F0000493F00004F3F00004F3F000085
S31500003F3C533F0000573F00005B3F0000092420461A
S31500003F4C10BD0224FBE70324F9E70B24F7E706244C
S31500003F5CF5E70446F3E700BF38B50D46044688BBC3
S31500003F6C284B4A1E186050425041013D09F088F812
S31500003F7C032D46D8DFE805F002131E200121084662
S31500003F8CFDF769FAFFF758FE1F4B187010B1A52004
S31500003F9CFFF748FEBDE83840012009F071B8022150
S31500003FAC0120FDF758FAFFF747FE50B3BDE838403D
S31500003FBCFFF74ABE0421F3E705210120BDE838408E
S31500003FCCFDF749BA104B1B781BB11048012105F0BF
S31500003FDC0BF8631E58425841013C09F067F8032C54
S31500003FEC0FD8DFE804F002080A0C012009F05EF88D
S31500003FFC01210020E2E70221FBE70421F9E7052174
S3150000400CF7E738BD303100207E3B0020002005400C
S3150000401C044AD2F81C341B0C1B04C2F82434024A82
S3150000402C1360704700A00040AC28002008B507F0CC
S3150000403C37F918B104489221FFF726F8BDE8084075
S3150000404C0249034807F0E0B952B90300841D002069
S3150000405C382B0020134A1449D2F82834D2F81C24E1
S3150000406C1340124A9BB21360D1F80001400502D5E9
S3150000407C0868400506D4D1F80001400305D5096847
S3150000408C480302D543F480331360074BD3F8001171
S3150000409C490006D51B685B0042BF136843F4003326
S315000040AC1360704700A0004000E100E030310020B2
S315000040BC012838B504460BD0831E012B07D90428DA
S315000040CC24D0052801D103F0D7FE002400E00224F9
S315000040DC03F0E0FC01210546204607F011F92846BD
S315000040EC03F0DCFC03F0D2FC03F0DFFC07F0B2F9C2
S315000040FC03F0CEFC03F0CEFC00210546204607F06B
S3150000410CFFF82846BDE8384003F0C8BC0324DFE7B7
S3150000411CFFF7CEBF402910B40C4607D80B490978D7
S3150000412C89B1E1B25DF8044B29F00CBAFF2903D929
S3150000413C5DF8044BFFF7BABC05485DF8044B40F23A
S3150000414C9511FEF7A1BF5DF8044B7047723B00203A
S3150000415CCEB9030013B5104C01230020237009F0CF
S3150000416C91F940B1002009F08DF920B1002323709C
S3150000417C492002B010BD02230DF106007F2200215A
S3150000418CFFF7C8FFBDF806300020B3F57F7F1CBFD4
S3150000419C20700720EDE700BF723B00204028F7B5E2
S315000041AC04460F46154617D8144A127892B1144E87
S315000041BC327832B1134801934FF4D071FEF764FF95
S315000041CC019B0122327029463A46E0B229F0FCF9ED
S315000041DC0023337003B0F0BDFF2806D91A462946D2
S315000041EC03B0BDE8F040FFF785BC06484FF4D67126
S315000041FC03B0BDE8F040FEF747BF00BF723B00209E
S3150000420C4E3B0020CEB90300024B1B780BB129F0B4
S3150000421CCDBA7047723B0020104430B5054602B942
S3150000422C30BD01F00F030A2B34BF3024372423444E
S3150000423C013A05F8013D0909D2B2F0E7F0B519B318
S3150000424C002820DA2D23B0F1004F137000D0404225
S3150000425C012119E0801B8642ECB205F10105F9D962
S3150000426C14B9BCF1000F05D04D1C303454544FF02A
S3150000427C010CE9B2013B13F0FF0309D13030505465
S3150000428C481CC0B2F0BD0021034F09234FF0000CAF
S3150000429C57F8046B0025DEE744BA03002DE9F04F0E
S315000042AC97B04FF0000B04AC8046894615469A46EB
S315000042BC5E462746297859B9E41BE4B222463946AC
S315000042CC4846C047002840F0AD803444E0B2AAE02E
S315000042DC252916D0BBF1000F17D1204600F8011B7B
S315000042EC044614AB9C42C0F0E280E41BE4B22246C6
S315000042FC39464846C047002840F094802644F6B21A
S3150000430CD4E0BBF1000F00D101352978782906D805
S3150000431C612907D825295ED03AD80029CCD04FF090
S3150000432C000BDEE7A1F16202162AF8D801A353F8B6
S3150000433C22F000BFED43000073440000BF440000B0
S3150000434C2B4300002B4300002B4300002B430000A3
S3150000435C2B4300002B4300002B430000BF440000FE
S3150000436C2B4300002B4300002B430000834400002A
S3150000437C2B4300002B430000834400002B4300001A
S3150000438CBF4400002B4300002B430000D343000026
S3150000439C392916D82F29C2D96A7802F0DF02582A91
S315000043AC40F0AD80322905F1010B40F09C805AF8A3
S315000043BC041B042289B22046FFF72EFF5D460446F5
S315000043CCADE75829ABD15AF8041B0222C9B22046D4
S315000043DCFFF722FF02E0204600F8011B04469EE789
S315000043ECDAF800300293DAF804300193013B4FF00F
S315000043FC000B0393019B9B4502D10AF1080A8EE739
S3150000440C029B204613F80B100222FFF705FF14AB94
S3150000441C984204460DD3C41BE4B22246394648469C
S3150000442CC04718B1002017B0BDE8F08F2644F6B28D
S3150000443C3C46039B5B4582BF2046202200F8012B9D
S3150000444C14AB88BF04469C420AD3E41BE4B2224652
S3150000445C39464846C0470028E4D12644F6B23C46C5
S3150000446C0BF1010BC6E75346204653F8042B00F814
S3150000447C012B9A46B2E7E41BE4B22246394648467B
S3150000448C5AF804BBC0470028CCD12644F6B2C4B2B5
S3150000449C01301BF80420002AF9D122465946484619
S315000044ACC0470028BED12644F6B283463C460135A9
S315000044BC00E76C29DAF800000AF1040B0ED16B78D0
S315000044CC752B14BF0121002101D0642B00D10135BD
S315000044DC2246FFF7B3FEDA46044420E775290CBFE3
S315000044EC00210121F4E7342909D15AF8045B04228E
S315000044FC290C2046FFF790FE0422A9B25CE74FF088
S3150000450C010BEEE60EB403B503AA52F8041B019296
S3150000451C08F094FEC0B202B05DF804EB03B070472D
S3150000452C0149FFF7EFBF00BF8F4A03000EB433B546
S3150000453C05AA054652F8041B019208F07FFE0446B4
S3150000454C2846FFF7EDFFE0B202B0BDE8304003B0FD
S3150000455C704708B508F072FEC0B208BD2DE9F04FE1
S3150000456C9A46554B85B01B78DDF83C909DF844B0C7
S3150000457CDDF8508006460F461546002B00F08B8062
S3150000458C072A00F28A800E9B002B00F08680B9F178
S3150000459C000F00F08280129BB3F5006F7DDC0128C2
S315000045AC02D1109B002B78D0444B03EB05131B7BDD
S315000045BC002B74D0424C10220021684630F046F88D
S315000045CC04EB45141022002F57D13946204630F003
S315000045DC3DF843F210036380BBF1000F03D1E3787F
S315000045EC43F00303E370364A0E9BCDF800A002EBB2
S315000045FC451CCCE90193129B013BC3F30A009DF8C1
S3150000460C4C30690103F003039B0643EA001E535822
S3150000461C2C4818404EEA0003012E535041D1132367
S3150000462CCCF80C309CE80F000CF1100E8EE80F0045
S3150000463CDCF81C20109BCCF814306FF0030161F3EE
S3150000464C9F02012FCCF81C2003D1CCF81890CCF883
S3150000465C04301A4A290102EB051342F8018000279F
S3150000466C159A5A6028469F605E732246694604F086
S3150000467C75F8384605B0BDE8F08F002120462FF0BE
S3150000468CE5FF4FF444736380BBF1000FABD1E378C5
S3150000469C43F03003A6E70C48ECE70C48EAE70C4875
S315000046ACE8E7B8F1000FD4D19CF8023068F3041394
S315000046BC8CF80230CDE700BFCF3A002090260020C0
S315000046CCAC2700200F80FFF3028000F0018000F081
S315000046DC078000F038B5124B1B780546DBB1E0B10C
S315000046EC03F0E7F90F4A00231146147B54B92B60EB
S315000046FC1A0101EB031301258C501D7303F0DFF92E
S3150000470C204638BD0133082B02F11002EDD103F01F
S3150000471CD6F90548F5E70548F3E70548F1E700BF84
S3150000472CCF3A002090260020048000F0028000F092
S3150000473C018000F013B503F0BCF90C4A0023147B7E
S3150000474C7CB90133082B02F11002F8D1019003F069
S3150000475CBBFF074B01981C7003F0B1F9204602B061
S3150000476C10BD03F0ACF90348F9E700BF9026002012
S3150000477CCF3A0020058000F00D4B1B7810B504468F
S3150000478C93B1072812D803F094F90A4B03EB0413E0
S3150000479C1A7B2AB100241C7303F091F9204610BD34
S315000047AC03F08DF90448FAE70448F8E70448F6E7FD
S315000047BCCF3A002090260020068000F0028000F000
S315000047CC018000F013B5164B1868019000238DF884
S315000047DC043003F06EF9134B1C7824B103F06FF917
S315000047EC114802B010BD01221A7003F068F90F4B84
S315000047FC1C731C7783F82C4083F83C4083F84C40A0
S3150000480C83F85C4083F86C4083F87C4004230DEB02
S3150000481C03008DF8073003F077FF2046E1E700BF71
S3150000482C68BA0300CF3A0020038000F090260020DF
S3150000483C10B588B00E9C07940D9C06949DF83040DC
S3150000484C05940B9C04949DF8284003940024CDE910
S3150000485C013400920B46024621462046FFF77EFEA7
S3150000486C08B010BD10B588B00E9C07940D9C06942C
S3150000487C9DF8304005940B9C04949DF828400394B5
S3150000488C0024CDE9013400920B4602460121204654
S3150000489CFFF764FE08B010BD0A4A127808B55AB183
S315000048AC07280BD8084A02EB00131B7B43B10021E7
S315000048BC03F020FF002008BD0448FCE70448FAE793
S315000048CC0448F8E7CF3A002090260020028000F03A
S315000048DC018000F0078000F00A4A127808B55AB138
S315000048EC07280BD8084A02EB00131B7B43B10121A6
S315000048FC03F000FF002008BD0448FCE70448FAE773
S3150000490C0448F8E7CF3A002090260020028000F0F9
S3150000491C018000F0078000F00A4A127808B552B1FF
S3150000492C07280AD8084A02EB00131B7B3BB103F09D
S3150000493C67FF002008BD0548FCE70548FAE705486F
S3150000494CF8E700BFCF3A002090260020028000F046
S3150000495C018000F0078000F00D4B1B7893B10728FF
S3150000496C12D889B10B4B03EB00131B7B73B10A4BAB
S3150000497C1A6A012303FA00F010401ABF00200B70CC
S3150000498C08707047054870470548704705487047DA
S3150000499CCF3A00209026002000200E40028000F026
S315000049AC018000F0078000F00B4A127810B50C4617
S315000049BC62B107280CD859B1084A02EB00131B7BCD
S315000049CC43B103F033FF2060002010BD0448FCE720
S315000049DC0448FAE70448F8E7CF3A0020902600206E
S315000049EC028000F0018000F0078000F02DE9F8430A
S315000049FCDFF86480D8F86070D8F86C301F4000D5AA
S31500004A0CFEE7144CDFF8549001260025374217D0E8
S31500004A1C2368C8F868609BB1A16862680131A1601F
S31500004A2C28469847637B012B0AD148B909EB4513F5
S31500004A3C1A7B60F341021A731A7F60F341021A77EC
S31500004A4C0135082D4FEA460604F11004DED1BDE807
S31500004A5CF88300BF9026002000200E40AC270020D3
S31500004A6C70B5094E0446012504B970BD94FAA4F03C
S31500004A7CB0FA80F005FA00F324EA030456F8203065
S31500004A8C002BF1D09847EFE7442B002008B51220F5
S31500004A9C03F026F828B1084B4FF48022C3F8802186
S31500004AAC1A600A2003F01CF828B1034B4FF48062FD
S31500004ABCC3F880211A6008BD00E100E038B5044651
S31500004ACC0D4602F0F6FF034B43F82450BDE8384080
S31500004ADC02F0F5BF442B0020054BD3F82804D3F87D
S31500004AEC1C24104000F05530C3F82404FFF7B8BF5F
S31500004AFC00A00040054BD3F82804D3F81C24104022
S31500004B0C00F0AA30C3F82404FFF7AABF00A00040A7
S31500004B1C00230B707047830711D16422B0FBF2F3AC
S31500004B2C02FB13039BB263B94FF4C873B0FBF3F2E9
S31500004B3C03FB120080B2B0FA80F0400970470020E7
S31500004B4C704701207047000070B5044650B3C68804
S31500004B5C8A2E27D805790B2D24D8C17811B3304667
S31500004B6CFFF7D9FF104B0C2202FB0030435D8B4242
S31500004B7C18D3A278172A15D863783B2B12D820782D
S31500004B8C3B280FD88A2E0BD165B913290AD8032ACC
S31500004B9C08D80E2B06D807288CBF0020012070BD24
S31500004BAC0120FCE70020FAE76CBA030010B500F010
S31500004BBC2FFD0A4C0A4B19682368C31A01B10BB9AD
S31500004BCC206010BD4A699A422EBFD21A9B1A002247
S31500004BDC4A6128BF00238968F0E700BF8C2C0020AF
S31500004BECBC300020C38870B504460D463BB906F0B0
S31500004BFCE5FB8542064602D206F0FAFB35460F491E
S31500004C0C65610B68ABB90C60A36011E0AD1A9A68CC
S31500004C1C656118462AB113465A69AA42F6D950B1AB
S31500004C2C1A4684601346A36013B15969491B59612E
S31500004C3C70BD0020F0E70C60F5E700BFBC3000202B
S31500004C4C38B50F4B0F4D1C682B685B6902201C4452
S31500004C5C00F00CFD204600F0E1FC0B492A6800230D
S31500004C6C0B70D088800702D501230B7038BD926873
S31500004C7C002AFBD050690344012BF2D9F6E700BF9A
S31500004C8C8C2C0020BC300020F53A002070B516465E
S31500004C9C9DF814200271049A0260C0E903360022C2
S31500004CACBDF818308260C38004460D4600F0B0FC97
S31500004CBC3044A0613DB9E368656113B121682046B3
S31500004CCC984796B1354602F0F4FE0646FFF76EFF9E
S31500004CDC29462046FFF786FF054B1B68A34201D1E8
S31500004CECFFF7AEFF304602F0EAFE002070BD00BFB3
S31500004CFCBC3000200C490B6800227BB183420AD1E0
S31500004D0C83687AB1936083681BB15A6941690A4416
S31500004D1C5A61002070471A469B68EEE70028EFD0D0
S31500004D2C022070470B60EEE7BC300020F8B51F4F31
S31500004D3C02F0BFFE3C780646002C32D11C4B1C60A0
S31500004D4C1C4B1C601C4B1C8000F01EFC012000F050
S31500004D5C8DFC00F0D9FC194B0546186020B930467D
S31500004D6C02F0ADFE2320F8BD154B02461C60002058
S31500004D7C234601212FF078FA124B00201A600121EC
S31500004D8C2A4623462FF070FA0F4B2A46186040F23B
S31500004D9CE73123460D482FF067FA0D4B18600123B7
S31500004DAC3B70304602F08BFE0020DCE7D73A002041
S31500004DBCBC3000208C2C002078340020B830002029
S31500004DCCA42D0020882600208426002018FCFFFF36
S31500004DDC982C00202DE9F0410546F8B102F069FE49
S31500004DEC0F4F0646FFF7E2FE2846D7F80080FFF77E
S31500004DFC81FF044628B1304602F061FE2046BDE82C
S31500004E0CF081A8453B6803D123B1FFF719FFF2E700
S31500004E1C002BF0D1022000F037FCECE72224EDE762
S31500004E2CBC30002070B586B0154605911E4604466A
S31500004E3C80B1FFF7CFFFBDF82C3002939DF82830D8
S31500004E4C0599CDE9006300222B462046FFF71EFF8D
S31500004E5C06B070BD2220FBE738B50C46054698B166
S31500004E6C91B100230B7002F024FE084B1B68012144
S31500004E7C0BB122781AB102F022FE002038BDAB42EB
S31500004E8C14BF9B682170F3E72220F7E7BC300020A3
S31500004E9CF0B587B01F4600230D4616468DF8173021
S31500004EAC0446A0B10DF11701FFF7D6FF9DF81720A8
S31500004EBC7AB9BDF8343002939DF830302946CDE9E5
S31500004ECC007320463346FFF7E1FE07B0F0BD222003
S31500004EDCFBE70320F9E70000F8B50C460546C8B118
S31500004EECC1B102F0E6FD0646FFF760FE6B69236072
S31500004EFC134B1B68AB420FD023B9304602F0DFFDD3
S31500004F0C03201CE0596922689B680A442260F1E779
S31500004F1C00230FE0222012E00A4D276800F078FBF0
S31500004F2C2B68C01A8742F3D900F072FB2B682268F3
S31500004F3C13441B1A3046236002F0C1FD0020F8BD55
S31500004F4CBC3000208C2C00202DE9F0410746884609
S31500004F5C02F0AFFD134B1C680546002624B9284603
S31500004F6C02F0ADFD1B2016E063691E44E388BB42CC
S31500004F7C15D10D4C00F04CFB2368C01AB0420CD274
S31500004F8C00F046FB22683244121A2846C8F8002064
S31500004F9C02F095FD0020BDE8F0810022F5E7A4683B
S31500004FACDCE700BFBC3000208C2C0020014B1878AD
S31500004FBC704700BFF53A002038B502F07AFD054679
S31500004FCC00F026FB0446284602F079FD204638BD43
S31500004FDC70B502F06EFD064600F01AFB084B1D88F4
S31500004FEC04460120ADB200F067FB18B100F010FBCF
S31500004FFC01350446304602F062FD2046294670BD56
S3150000500C78340020014B1868704700BFB830002078
S3150000501C70B500F0FDFA0B4B04461E6802F049FD14
S3150000502CB4FBF6F3084A156806FB13441D44074BFC
S3150000503C1B681C44B44228BF013502F040FD2846CB
S3150000504C70BD00BFB8300020A42D0020FC2C002021
S3150000505CF8B5041E17DB0D4B1F6800F0D9FA06468F
S3150000506C02F027FD0A4B0B4A00251D60B6FBF7F331
S3150000507C9C42146005D3E41A146002F020FD284605
S3150000508CF8BD02F01CFD2120FAE700BFB830002065
S3150000509CFC2C0020A42D00202DE9F0410C46904656
S315000050AC1F460546002842D040F26B7399429DF884
S315000050BC183083709DF81C30437088BFA1F26C7455
S315000050CC9DF82030037088BFA4B2099BC48002717E
S315000050DCC770C360FFF738FD58B32046FFF71BFDBA
S315000050EC154B0C2202FB003000231946DAB2904510
S315000050FC17D840F26D12A4F149035443A4F5C744E2
S3150000510C39444A3C89B204EB93040C440723B4FBA0
S3150000511CF3F3C3EBC303E41A69812C720020BDE8D8
S3150000512CF08110F8016B0E44B1B20133DEE7222098
S3150000513CF5E72120F3E700BF6CBA03000029F8B5A8
S3150000514C164645DA4B42984294BF002301230028A9
S3150000515C57DB002B55D03C24B0FBF4F204FB1203B6
S3150000516C3370B2FBF4F304FB132272701822B3FBF8
S3150000517CF2F502FB1533B3702A1D0723B2FBF3F3CA
S3150000518CC3EBC303D31A33721F4B204CB0FBF4F49E
S3150000519C984223D8E4B2002704F14600F080FFF7CA
S315000051ACBAFCED1B40F26D1303FB1454184A631C36
S315000051BC0C25738105FB00200023DAB20133855CD4
S315000051CCA5421CD901343271F470F1600020F8BD8F
S315000051DCCB4398428CBF00230123B8E7033CA410B1
S315000051EC0134E4B240F26D132C1BB4FBF3F4E4B2BD
S315000051FCE31E48BF23469F100137FFB2CCE7641B62
S3150000520CDBE72120E3E700BF7F9AA3058033E101AA
S3150000521C6CBA0300F8B506460D46FFF795FC002858
S3150000522C37D0F0881C493779A0F14602D2B2022A4F
S3150000523C82BFD41EA410013402FB01F18CBFE4B270
S3150000524C0024FFF768FC154B0C2202FB00300023F0
S3150000525C9F4218DC7378B278C3EB03134FF461608A
S3150000526C9B0000FB023332781344F278013A144463
S3150000527C0B4A0B44A4B202FB04342C60F3681C44A6
S3150000528C2C600020F8BD10F8012B1444A4B2013395
S3150000529CDEE72120F6E700BF8033E1016CBA03009C
S315000052AC8051010013B5002304460193FFF74CFC13
S315000052BC48B101A92046FFF7ADFF10B90198FFF7D9
S315000052CCC7FE02B010BD2120FBE7000010B502F0AE
S315000052DCF0FB034B1C6802F0F2FB204610BD00BF2E
S315000052ECC030002013B50190FFF792FE0446FFF77D
S315000052FCEDFF019A0146204602B0BDE81040FFF7CB
S3150000530C1DBF0000044B1B6858434FF47A73B0FB67
S3150000531CF3F00130704700BFB830002000B58BB0F9
S3150000532C01238DF80B30FFF7EDFF0023CDE9003399
S3150000533C0146074A0DF10B0303A8FFF7A9FD18B99F
S3150000534C9DF80B30002BFBD10BB05DF804FB00BFB6
S3150000535C1D4B00000A4B1B68834210B50C460CD340
S3150000536C084B19684FF47A720023A0FB01012EF04A
S3150000537C7BFF01302060002010BD2120FCE700BF20
S3150000538C982C0020B83000200F4B1A6810B59AB133
S3150000539C531E4FF47A711342A0FB01010ED1B2FADF
S315000053AC82F2C2F11F04531CE040D24301FA03F30C
S315000053BC184321FA02F20243104610BD00232EF0C8
S315000053CC53FF0246F8E700BFB8300020164B834265
S315000053DC164B8B4170B5154624D3154B1A680AB378
S315000053EC4FF47A76541EA0FB0603144006FB0131DB
S315000053FC11D1B2FA82F3C3F11F025E1C01FA06F652
S3150000540CDB43D04021FA03F330431843D140C5E9BE
S3150000541C0001204670BD00232EF026FF0024C5E9AE
S3150000542C0001F6E72124F4E7EFA7C64B37894100C4
S3150000543CB8300020C2072DE9F347044620D54A4B65
S3150000544C4A494B4A1D6812680B681344AB42494AD9
S3150000545C0B6004D310685B1B013010600B6046496F
S3150000546C136809680B441360444A138801339BB2D2
S3150000547C1380FFF79BFB424B1B680BB1FFF7E0FB5E
S3150000548CA3076DD502F015FB0546FFF78FFB00262B
S3150000549CDFF8EC803746B146D8F800400CB16369AA
S315000054AC8BB1384B0022012F1A7002D1022E08BF85
S315000054BC1F70002C44D0FFF7C3FB284602B0BDE892
S315000054CCF04702F0FCBA23461A792179914288BF3B
S315000054DC1C469B6813B15A69002AF5D0284602F07F
S315000054ECEEFA256985B300F093F8A269861AF317CC
S315000054FCB54279EB030328DA23691344A36101232C
S3150000550C226982B17BB9A91B019102F0D2FA0199E9
S3150000551C82462046FFF766FBA36922691344A36102
S3150000552C504602F0CCFAE368E688013713B12168DD
S3150000553C2046984702F0BDFA0546FFF737FBABE766
S3150000554C022000F0A1F8B8E72E4602F0B2FA824625
S3150000555C2046FFF7CFFB504602F0B1FA0023CFE707
S3150000556C02B0BDE8F08700BFB8300020FC2C00204C
S3150000557C88260020A42D00208426002078340020C4
S3150000558CBC3000205D3B002010B51D4B86B0186862
S3150000559C596803AA03C2197AD3F80900117001904D
S315000055ACB3F80D201748DB7BADF8082001218DF8E8
S315000055BC0A30002401F028FE03A88DF80C408DF863
S315000055CC104003F0F1FA01A901208DF8044003F014
S315000055DCCBFA0D4A536A23F4FF6323F00703536295
S315000055EC40F2FF7313620120946003F0D7FA074B65
S315000055FC4FF08042C3F880211A6006B010BD00BF80
S3150000560C84BA0300A00914000020044000E100E065
S3150000561C014B9868704700BF00200440114A9368FC
S3150000562C516D9269520704D4CA1A032A01D89942B9
S3150000563C0DD1C21A022A98BFD81C0A4BB0F1FF3FF3
S3150000564C38BF013858655A6A42F004025A62064A53
