S0110000536D61727457617465722E733337D9
S31500004000401A002091DC0100217300002573000096
S31500004010A70A0A010042000004180FAC306A290101
S31500004020000000000000000000000000000000008A
S315000040300000000044EA0300000000000000000049
S315000040400000000000000000FFFFFFFFFFFFFFFF72
S31500004050FFFFFFFF00600B000000000000000000F3
S31500004060FFFFFFFFFFFFFFFF8000000000000000D2
S31500004070000000000000000000000000000000003A
S315000040800000000000000000794100207941002076
S31500004090401A0020D03B040068660300E0100020B0
S311000040A0B410002000E00B00000000003F
S31500004200401A002091DC0100217300002573000094
S31500004210D9AA000029730000317300008FDC010069
S315000042208FDC01008FDC01008FDC01008FDC0100D8
S31500004230357300008FDC01008FDC01008FDC01008C
S31500004240A8730000A8730000A8730000A8730000FC
S31500004250A87300004D8D0000258E0000A873000095
S31500004260A8730000A8730000198B0000A873000053
S31500004270A8730000A8730000A8730000A8730000CC
S31500004280A8730000A8730000A87300008FDC01006B
S31500004290A87300002D820000A8730000A873000018
S315000042A0A87300003983000019830000A87300007A
S315000042B0A8730000A8730000A87300002DB50100C4
S315000042C0D1B40100CDB4010085AD010029B50100CE
S315000042D0D5B40100EDB40100D9B40100CD9C0100B4
S315000042E06DB50100A8730000A873000011760000E8
S315000042F0A8730000ADB50000A87300008FDC0100B4
S31500004300A8730000A8730000A8730000A87300003B
S31500004310A8730000A8730000A8730000A87300002B
S31500004320A8730000A8730000A8730000A87300001B
S30900004330A873000068
S31500004334F8B500BFF8BC08BC9E467047F8B500BF88
S31500004344F8BC08BC9E46704710B5054C237833B9B3
S31500004354044B13B1044800E000BF0123237010BDD1
S3150000436450260020000000004C33040008B5034B1F
S315000043741BB10349034800E000BF08BD000000006C
S31500004384542600204C330400A3F5803A704700BF3E
S31500004394174B002B08BF134B9D46FFF7F5FF002173
S315000043A48B460F461348144A121A32F026F90E4B5E
S315000043B4002B00D098470D4B002B00D098470020C7
S315000043C4002104000D000D48002802D00C4800E02E
S315000043D400BF32F0B7F82000290009F045FF32F09B
S315000043E49DF800BF00000800000000000000000067
S315000043F4401A0020BC220020794100200000000061
S31500004404000000007047002070470020704700201D
S31500004414704700207047000008B50AF05FFF0228C5
S315000044240CD1012005F0ECFD064A1378191F052965
S315000044348EBF00230333DBB2137008BD07F08EFF73
S31500004444F2E700BF4A3C00207047704708B50AF0FF
S3150000445445FF022801D105F0D3FD044A1378032B46
S315000044648EBF00230233DBB2137008BD4A3C002022
S315000044747047000008B50AF031FF022802D1032074
S3150000448405F0BEFD0A4A0121137873B10948B3FA4F
S3150000449483F35B09C0F8A0101370074B1A78002A3F
S315000044A40CBF032200221A7008BD0448EFE700BFC0
S315000044B47140002000D003404A3C002000E0034045
S315000044C470470000012802D1064B18707047022875
S315000044D403D1054B01221A7070470328FCD1034B04
S315000044E4F8E700BF634100206441002062410020D8
S315000044F4012803D1054B00221A707047022801D106
S31500004504034BF8E70328F8D1024BF4E76341002094
S315000045146441002062410020012070470120704759
S31500004524002070470020704700207047044B01208C
S315000045341B6C9B075EBF0222024B1A64704700BFC6
S3150000454400C0034000D00340044B01201B6C9B07B2
S3150000455442BF0222024B1A64704700BF00C00340E8
S3150000456400E00340044B01201B6CDB075EBF012205
S31500004574024B1A64704700BF00C0034000D00340DA
S31500004584044B01201B6CDB0742BF0122024B1A6459
S31500004594704700BF00C0034000E003402DE9F0412E
S315000045A4214D2B780A2B10D0204B1A6C920702D47B
S315000045B41B6CDB0736D51E4B0422BDE8F0414FF4D5
S315000045C4FA611C481A671DF0C7BF04221A4B00245F
S315000045D41A6702221A6401222021DFF86880174F25
S315000045E4174E1A64C3F8A020A3F5805388F8004038
S315000045F43C7034701961402119611A6719F00EFF75
S3150000460441F2883004F0CEF8FA2140461DF0A4FFAA
S31500004614FA2138461DF0A0FFFA2130461DF09CFF12
S315000046242C70C1E7044BC7E74A3C002000C0034096
S3150000463400D003408426002000E0034074260020B6
S315000046447C2600206C26002070B50AF047FE02285E
S315000046543C4B52D13C493D4A1E780C7815783C486F
S315000046643C49002E35D0032D10D914B920263A4DD5
S315000046742E61057815B94026374D2E610D7815B98A
S315000046840126354D2E67002515701D70137834B13B
S31500004694202413F0010F14BF2F4D304D2C610078E8
S315000046A430B1402013F0010F14BF2B4C2B4C20616A
S315000046B4097831B1012113F0010F14BF26482748A8
S315000046C4016701331370FA21BDE8704024481DF0D8
S315000046D443BF032DDAD914B92026204D2E6105785F
S315000046E415B940261D4D2E610D7815B901261B4DB1
S315000046F42E67002515700125C7E71A784AB92021C7
S31500004704164A1161402214490A6101220A671A7085
S31500004714D9E7012A08D1202040240F4908610F480F
S3150000472404610A670222F2E7022ACCD120210A4A4E
S315000047341161402111610121A2F580521167002205
S31500004744E5E700BF70400020634100207F3F002062
S31500004754644100206241002000E0034000D0034091
S315000047646C26002070477047002310B518460422B3
S31500004774052105F011F9002304221846062105F047
S315000047840BF9002304221946022005F005F901213C
S3150000479400230846042205F0FFF8002304221946E4
S315000047A4012005F0F9F8022100230846042205F049
S315000047B4F3F8002304220121032005F0EDF8BDE8F7
S315000047C41040002304221946032005F0E5B8000032
S315000047D408B5FFF7C9FF4FF4FA6104481DF0BCFEA3
S315000047E4FA2103481DF0B8FE002008BD84260020E7
S315000047F46C260020C37B10B523B9C47C14B9FFF71B
S3150000480402FE00B98124204610BD08B5C37B1BB93E
S31500004814C37C1BB1012B0FD0812008BD017D828989
S315000048248B1C9A420BD380680CF05EFE06F0FAFFEE
S315000048340028F1D00020F0E707F00EF8F8E7802012
S31500004844EBE7F8B5C37B04464BBBC37C052B26D8E4
S31500004854DFE803F00327323E494C057D8289AB1C11
S315000048649A4201D28020F8BDADB2294680680CF088
S315000048743BFE0646A06802352844A7890CF04CFE88
S315000048842B1801339F42EDD32946A289A0680CF068
S3150000489431FE0146304605F075FE002845D18120DB
S315000048A4E1E7017D82898B1C9A42DBD380680CF098
S315000048B41BFE05F087FEF0E7037D81895A1C9142B1
S315000048C4D0D38268591CD05C114405F0B5FEE4E7E8
S315000048D4017D82898B1C9A42C4D380680CF004FE45
S315000048E405F034FFD9E705F099FFD6E7057D8289FF
S315000048F4AB1C9A42B6D3ADB2294680680CF0F4FDDF
S315000049040646A06802352844A7890CF005FE2B1834
S3150000491401339F42A6D32946A289A0680CF0EAFD7A
S315000049240146304605F0C2FFB7E700209BE72DE9B4
S31500004934F043C37B044685B0002B47D1C37C062BCA
S3150000494444D8DFE803F0044555657080A200067D6F
S315000049548289B31C9A4203D2802005B0BDE8F08355
S31500004964B6B2314680680CF0BFFDA289F11C8A42BA
S315000049740746F1D3751DAA42EED3A068023610F895
S3150000498406800CF0B1FD0646A068B4F80C902844E5
S315000049940CF0C2FD2844431C9945DDD32946A2895F
S315000049A4A0680CF0A7FD0390A06828440CF0B4FDA1
S315000049B401300544A068324610FA85F5414638466A
S315000049C4039B009509F0EAF900286AD18120C4E71F
S315000049D4057D8289EB1C9A42BED3ADB22946806816
S315000049E40CF082FDA3680235595D09F04BFAEBE73A
S315000049F4057D8289EB1C9A42AED3ADB22946806806
S31500004A040CF072FDA3680235595D08F01FFEDBE762
S31500004A14017D82898B1C9A429ED380680CF064FDCA
S31500004A2408F088FED0E7057D8289EB1C9A4293D371
S31500004A34ADB2294680680CF057FDA3680235595D6E
S31500004A4408F0D0FFC0E7057D8289AB1C9A4283D368
S31500004A54ADB2294680680CF047FDA289E91C8A425A
S31500004A64064605F10203FFF477AFA0680535AA42AE
S31500004A74C45C07D30CF038FD02462146304609F0E3
S31500004A840DF8A1E74FF6FF72F7E7017D82898B1CCB
S31500004A949A42FFF461AF80680CF026FD08F0B4FE7C
S31500004AA492E7002059E708B5C37B63B9C37C012BA1
S31500004AB413D0022B20D033B903685B79012B04D1C0
S31500004AC4FFF742FDD8B9812008BD022B02D1FFF7BA
S31500004AD457FDF7E7FFF724FDF4E703685B79012B3D
S31500004AE402D1FFF723FDEDE7022B02D1FFF73AFDD2
S31500004AF4E8E7FFF717FDE5E7FFF716FDE2E7002015
S31500004B04E2E7C37BF7B504461BBBC37C0C2B20D85A
S31500004B14DFE803F0072225281F1F1F1F1F1F1F1F63
S31500004B243700057D8289EB1D9A424BD3ADB22946E7
S31500004B3480680CF0D3FCA468AB1D6A1D291D0735DB
S31500004B442544E35CA25C615C009509F0DBFC00286B
S31500004B543AD1812003B0F0BD09F0F2FCF7E709F081
S31500004B64F5FCF4E7017D82894B1D9A422AD38068BD
S31500004B74445C01310CF0B2FC0146204609F0ECFC21
S31500004B84E5E7057D828905F10D039A421AD3ADB294
S31500004B94294680680CF0A2FCA2890646291DA06855
S31500004BA40CF09CFCA289074605F10801A0680CF0EC
S31500004BB495FCA3680C350246394630465B5D09F020
S31500004BC4D1FCC4E78020C5E70020C3E710B5437DC8
S31500004BD40446012B20D10368028A598858790BF0C0
S31500004BE461F9C8B140F2027223685B8893420ED021
S31500004BF405D8032B09D01A2B07D0C32006E040F6AC
S31500004C04013223F002039342F6E7812010BD2046C9
S31500004C14BDE81040FFF775BF637D002BEDD1236817
S31500004C24228A598858790BF034F90028E5D023688C
S31500004C345B880A2BE1D801A252F823F06D4C0000E0
S31500004C44FF4B0000FF4B0000774C0000814C000036
S31500004C548B4C0000954C0000FF4B0000FF4B0000FE
S31500004C64FF4B00000F4C00002046BDE81040FFF744
S31500004C74C1BD2046BDE81040FFF7C7BD2046BDE8CC
S31500004C841040FFF7DEBD2046BDE81040FFF74FBEDB
S31500004C942046BDE81040FFF706BF00BF704701205D
S31500004CA47047012070470120704770470020704705
S31500004CB4002070470020704700207047002070478E
S31500004CC400207047B52070470020704700207047C9
S31500004CD40020704700207047704700207047B520B9
S31500004CE470477047704700207047842070477047AC
S31500004CF470477047704770477047704770477047F2
S31500004D047047704770477047002070477047704778
S31500004D140120704700207047034B1B681878012850
S31500004D2408BF0220704700BF603000200020704793
S31500004D340123034AC0E90323002202701846704780
S31500004D440100FEFF002070474FF6FF7070474FF6D4
S31500004D54FF7070477047002070470020704700209E
S31500004D64704700207047002070477047B520704791
S31500004D740020704700207047704700207047704736
S31500004D8470477047704700207047B52070477047DA
S31500004D9470477047002070477047704770477047E8
S31500004DA40023FF21084A137082F8783082F86530B0
S31500004DB482F8773082F8793082F87A1082F87B307C
S31500004DC4024A1360704700BF803F0020F83200207B
S31500004DD4044B184490F8663090F86500181AC0B26F
S31500004DE4704700BF803F0020F8B5214C94F87B2023
S31500004DF41044C2B21046FFF7EBFF4FF0000C074613
S31500004E0460461C4B224492F865501E7825445FFA8E
S31500004E148CF2974224D96B7811B10AB92D2B17D08D
S31500004E24782B21D0582B05D108B137220AE0013A54
S31500004E34012A16D9602B19D8402BF6D83A2B34BF41
S31500004E44302200229B1ADBB29E4205D900FB0630B3
S31500004E540CF1010C0135DAE70523002084F87930DA
S31500004E64F8BD10260020F3E70028E0D05722E9E732
S31500004E74803F0020732200202DE9F0470D468F68FD
S31500004E840A6804463949102003F0A2F96B68ABB9E5
S31500004E941020374903F09CF9102009F05FF8EA68FE
S31500004EA41AB11020334903F093F91020324903F064
S31500004EB4A3F9BDE8F047102009F050B8002CEBD058
S31500004EC4EB681BB110202D4903F082F90026DFF8A8
S31500004ED4D880DFF8D890DFF8D8A0013F17F8014F43
S31500004EE424B92549102003F087F9D5E72B691BB1AE
S31500004EF44146102003F06CF9752C24D0762C24D06E
S31500004F04772C24D0732C24D0722C24D0712C24D04A
S31500004F14622C24D06E2C24D02A2C24D01849194B68
S31500004F24212C18BF1946102003F052F9212CD5D094
S31500004F342B692BB1102053F82620134903F048F9A6
S31500004F440136F6B2CAE74946EDE75146EBE70F49A3
S31500004F54E9E70F49E7E70F49E5E70F49E3E70F49B3
S31500004F64E1E70F49DFE70F49DDE700BF9EEC0300E9
S31500004F741C700300E66603007DFC0300D66603008E
S31500004F848A660300D3660300E0660300BC6603007A
S31500004F9473660300C8660300686603007D66030043
S31500004FA41B70030087660300D8090400A566030086
S31500004FB4B0660300FFF7F4BE034B93F8770093F84B
S31500004FC47B30C01AC0B27047803F00200021FFF733
S31500004FD40BBF000010B50A4B93F87B20024453FA2A
S31500004FE482F292F8652013445C78A4F12D035942A9
S31500004FF45941FFF7F9FE2D2C08BF404210BD00BFF2
S31500005004803F002038B5C443094DE40F95F87B2052
S315000050140244D2B221B11046FFF7DAFE001B087033
S3150000502445FA82F292F8650004440248204438BDE9
S31500005034803F0020813F00202DE9F34115460E46AE
S315000050440DF107011C46FFF7DDFF9DF8073080468A
S31500005054AB4288BF8DF807509DF807700CB1EC1B66
S31500005064E4B222460021304631F0C7FA3A464146B8
S31500005074301931F0A8FA384602B0BDE8F08138B5E7
S315000050840C4601230822FFF7D7FF04F10803621E2A
S31500005094043413F8011D12F8015FA3421D70117048
S315000050A4F7D138BD38B5054601460120FFF7E4FEC1
S315000050B4D5E901436CB91C46084D236863B12946FA
S315000050C4102003F085F821460020FFF7D5FE14349E
S315000050D4F3E71B786E2BEFD038BD00BFD809040068
S315000050E408B51020034903F073F8BDE80840102002
S315000050F408F034BFEC66030010B5FFF7F1FF054C6A
S31500005104236803B910BD21460020FFF7B5FE143409
S31500005114F6E700BFA4C603001E4B2DE9F0471E4E5A
S3150000512453F820201D49102003F052F833681BB9A8
S31500005134BDE8F047FFF7E0BFFFF7D2FF0024184DA4
S31500005144DFF8648095F87B30E7B2013B9F4204DBCD
S315000051543068BDE8F047FFF7A5BF4FF0000A45FAEF
S3150000516484F393F86590A9443846FFF731FE5FFA55
S315000051748AF3834205D310200A4903F029F801343F
S31500005184E0E74B44414610205A7803F021F80AF12F
S31500005194010AE9E7F41D0020F83200202C67030019
S315000051A4803F0020D9090400A40E04002DE9F84F1D
S315000051B4824C94F87730002B00F09680804B04F1F3
S315000051C401081B7813F0010F1BD000257D4EE8B2B1
S315000051D4FFF7FEFD44FA85F393F865100246414451
S315000051E4102008F0B6FE3146102002F0F1FF01351A
S315000051F494F87720EBB29A42E9D81020724902F06B
S31500005204E7FF002694F877A0704A44FA86F33046FE
S3150000521493F86590FFF7DCFD4FF0000C6546C1443A
S315000052241768002F50D0CE46013F18E023B9002D51
S3150000523447D115461432F3E71EF8011BA1F1410BC1
S31500005244BBF1190F98BF2031A3F1410B98BFC9B226
S31500005254BBF1190F9CBF2033DBB28B42EAD1AEEB14
S315000052640901814217F8013FE0D1002BDFD1154631
S31500005274574B01361D6094F87B30F6B2013384F83F
S315000052847B30D5E90132A3B312786E2A30D03F2A97
S3150000529423D04FF000094FF0050BC846072394F8B6
S315000052A47710AA68B14212F8087029D8AFB14244FF
S315000052B453782A2B11D0212F1CBF032384F879306D
S315000052C40BE04FF0010CB5E7BCF1000F01D1002D46
S315000052D4CED10223002584F8793094F87900002889
S315000052E468D168680BF0EEFDBDE8F84FFFF758BDCE
S315000052F41A46B24589D80323154684F87930ECE773
S31500005304622F30D006D8002F52D0212F3AD084F8FD
S31500005314793037E0732F15D8702FF8D9732F1FD033
S31500005324722F47F6FF7A18BF4FF0FF3A012148461D
S31500005334FFF75AFD50454FF0070323D9042284F89A
S3150000534479201FE0A7F17502022AE0D8752F04D050
S31500005354762FE3D14FF6FF7AE8E74FF0FF0AE5E749
S315000053644FF07F0AE2E794F87B204A4454FA82F22B
S3150000537492F8652022445278222A03D07B2A01D04F
S3150000538484F879B0AA68424452782A2A94F8792093
S315000053941CBF08F101085FFA88F8002A9DD1212F65
S315000053A41FBF013609F10109F6B25FFA89F976E7FA
S315000053B40322C4E7FFF7B0FE96E700BF803F002054
S315000053C43E400020D909040029670300A4C603004F
S315000053D4F83200202DE9F34106460D464FF0000849
S315000053E45C4C5D4F66B928460DF1070108F0AAFD2D
S315000053F478B1262800F0AA80012384F879304BE09E
S31500005404002D00F0A38016F8013B013D8DF807300E
S31500005414EDB23A789DF807300D2A3B7001D10A2B7C
S31500005424E0D00D2B0CD0A3F10A025142514122784F
S315000054348846042AD6D8DFE802F0051D263C31004A
S315000054440121F4E721B1FFF7B1FE4FF00108C9E7E6
S31500005454202B64D0222B07D10223237094F87820C2
S31500005464642A5ED10623C8E77B2B01D10323F4E724
S315000054740123F2E709B9202BF0D194F87730112BE8
S3150000548440D10323B9E7222BF7D00029E6D0052320
S315000054944FF0010884F8793004232370B8F1000F23
S315000054A4A0D094F8790008B1FFF736FEFFF778FC30
S315000054B498E77D2B94F87A0003D1FF28DDD00523E5
S315000054C49BE7602B13D8402B13D83A2B34BF3022DA
S315000054D400229A1AD2B20F2A10D8FF280BD0FF2323
S315000054E402EB00128DF8072084F87A30B6E75722CB
S315000054F4EFE73722EDE784F87A2073E7202B3FF4B1
S3150000550471AFDCE70133DBB294F8782084F87730A6
S31500005514234483F8652000232370002993D1884609
S3150000552460E72378012B09D19DF80730A3F14101E7
S3150000553419299CBF2033DBB28DF807309DF807107C
S31500005544A3180132597084F878204BE7404602B01C
S31500005554BDE8F081803F0020AF40002049BA89B2FF
S315000055644840C0F303134340180380B258405B011C
S3150000557403F4FF53584070471BF038BA704770471E
S315000055847047704770477047704770477047704759
S3150000559470477047704770477047002070477047E0
S315000055A470470020704770477047002070470020FE
S315000055B47047704770477047704770477047704729
S315000055C4704700002DE9F0470024204EDFF89C9038
S315000055D4DFF89CA05FFA84F840461CF03FFAFF28E7
S315000055E405460CD122461A49307802F005FE307879
S315000055F4013408F0B3FC152CECD1BDE8F087154B4B
S3150000560447B233EA270328BF534659F824201249E0
S31500005614307802F0F1FD002FE9DA14B1B8F1030F86
S3150000562408D10E4B15F0010F0D49307808BF194605
S3150000563402F0E2FD0A2CDAD10A4B15F0010F0A49F1
S31500005644307808BF194602F0D7FDD0E7B42200200F
S31500005654E1670300B70A040009680300BA67030098
S31500005664A4670300D6670300CC6703000869030038
S315000056747DFC030082B2074B4AB1000C1A8008BFB6
S315000056844FF6CE22044B14BF18801A8070474BF68F
S31500005694EF62F2E732220020342200200B4BB3F9EA
S315000056A400201888002AB8BF80F0620042001A80E1
S315000056B4074AB2F9001013880029BCBF83F480534B
S315000056C483F00B03590011805840704732220020A2
S315000056D4342200200022034B1870034B1970034B2D
S315000056E41A707047803E00207F3E0020A9400020AB
S315000056F42DE9F74FDFF89890064699F800300F46E3
S31500005704002B41D04FF6FB7398423DD80025DFF8B5
S315000057148480DFF884A098F800409AF8000069466F
S3150000572450FA85F0C0B226F077FD0822394668465D
S315000057345FFA85FB30F02AFFF8B95C4698F800302A
S31500005744A3420AD199F80020631CDBB29A4288F876
S31500005754003004BF002388F800309AF80030394638
S315000057641C44E4B2204626F095FE68B9314620462C
S3150000577403B0BDE8F04F26F01DBD99F800200135B1
S31500005784EBB29A42C9D8D9E703B0BDE8F08F00BF9F
S315000057947F3E0020A9400020803E0020024B18785E
S315000057A400F07F00704700BF77410020034B187854
S315000057B40130C0B2187000F07F00704777410020B6
S315000057C41FB5030A8DF80E300323009303AB8DF83F
S315000057D40D0000F0CFF905B05DF804FB1FB58DF898
S315000057E40F100421030A8DF80E30009103AB8DF8D7
S315000057F40D0000F0BFF905B05DF804FBF0B589B003
S315000058041768BDF838509DF83C60CDF809705768A4
S315000058148DF81250012E4FEA1525DDF840C0BDF86B
S315000058244440CDF80D708DF811308DF813508DF875
S31500005834146016D0032E1BD1DCF80030CDF81530D9
S31500005844DCF80430CDF819309DF848308DF81D3059
S3150000585416230093BDF84C2002AB00F08BF909B077
S31500005864F0BD8DF81540240A0F238DF81640F0E795
S315000058740120F4E71FB50446084611461A460223DA
S315000058848DF80D100093214603AB00F073F904B0B4
S3150000589410BD10B514461A460B6886B0CDF80D3007
S315000058A44B683421CDF811300A23009303AB8DF8ED
S315000058B4154000F05FF906B010BD000030B50024B5
S315000058C485B0ADF80A20021D92B2012A1D46ADF834
S315000058D40840ADF80610ADF8044003D94FF6FF7240
S315000058E4904207D1064A2B46127801A924F0EEFC11
S315000058F405B030BD014601AA204624F0ADFDF7E708
S31500005904BB2200202DE9F04F2DED028B87B00C460B
S315000059141D46174600904AB310461DF039FAC0F3E7
S31500005924470A2DB328461DF033FAC0F34708FFF79C
S315000059343DFF009B8DF810008DF811308DF8134053
S315000059441B0A00220621240A04A88DF812308DF8B9
S3150000595414408DF815A01DF019FBADF80E0048B9DA
S31500005964182007B0BDEC028BBDE8F08F9246D8E74D
S31500005974A846DCE74FEA4A01C9B201F1060B073132
S315000059845FFA81F901EB48015FFA8BF3C9B20DF1B5
S315000059940E0008EE103A1DF0F1FC04460028DFD193
S315000059A4834606265FFA8BF18A45BDF80E3011D878
S315000059B4424618EE101A18461DF054FDE6B2B045DC
S315000059C4BDF80E3027D80621BDF848200098FFF709
S315000059D475FFC6E7490001F0FE01384601931DF044
S315000059E42DFD019B0246314618461DF03BFDBDF8D0
S315000059F40E30711FC9B2384601931DF01FFD019B7D
S31500005A04711C0246C9B2184602361DF02BFD0BF175
S31500005A14010BF6B2C6E77600F6B231462846019384
S31500005A241DF00CFD019B0246494618461DF01AFD61
S31500005A34711CC9B22846BDF80E701DF0FFFC09F1B1
S31500005A4401010246C9B2384609F102091DF00AFDF0
S31500005A5401345FFA89F9B1E7F0B589B00E4602A9B7
S31500005A64054609F0F3FC00287ED0FFF79FFE8DF86B
S31500005A7410001CF0B3F98DF811001CF0AFF93C4A84
S31500005A84000A13688DF81200CDF8133053680F21FD
S31500005A94CDF81730BDF8083000228DF81C301B0AEB
S31500005AA48DF81D309DF80D3004A88DF81B508DF827
S31500005AB41E301DF06BFAADF80600002856D00027FC
S31500005AC49DF80D30FAB2934216D801230DF10E015A
S31500005AD41A460DF106001DF095FA00279DF80E30C2
S31500005AE4FAB2934224D8324620210020BDF806306B
S31500005AF4FFF7E4FE09B0F0BD0021284609F0D2FC08
S31500005B04012304461A468DF805000DF105010DF131
S31500005B1406001DF077FA0123240A1A460DF1050141
S31500005B240DF106008DF8054001371DF06BFAC7E745
S31500005B340121284609F0B6FC012304461A468DF8CD
S31500005B4405000DF105010DF106001DF05BFA0123B8
S31500005B54240A1A460DF105010DF106008DF80540DB
S31500005B6401371DF04FFAB9E7A320C3E71820C1E7B0
S31500005B7426400020F7B50E469DF820101C46174611
S31500005B8401910546FFF712FE002220700199204676
S31500005B941DF0FCF9034638B13A463146284603B0AF
S31500005BA4BDE8F040FFF78ABE182003B0F0BD08B583
S31500005BB4FEF728FCBDE808400DF048BA08B5FFF723
S31500005BC490F80DF06DFABDE8084005F0B1BE08B5D1
S31500005BD4FFF788F804F03FFABDE8084006F0D0B8AD
S31500005BE4FEF713BCFFF7BBB80020704738B5044670
S31500005BF40D46FFF7D1F829462046BDE8384008F09F
S31500005C04E5BCFFF7AEB8FFF7B8B801221A21104673
S31500005C140DF010BF06221A2101200DF00BBF002241
S31500005C241A2101200DF006BF07221A2101200DF0CA
S31500005C3401BF04221A2101200DF0FCBE052240F208
S31500005C44027101200DF0F6BE072240F20271012016
S31500005C540DF0F0BE0E2240F2027101200DF0EABEF4
S31500005C640D2240F2027101200DF0E4BE042240F23E
S31500005C74027101200DF0DEBE0A2240F202710120FB
S31500005C840DF0D8BE032240F2027101200DF0D2BEFF
S31500005C94022240F2027101200DF0CCBE0C2240F229
S31500005CA4027101200DF0C6BE062240F202710120E7
S31500005CB40DF0C0BE082240F2027101200DF0BABEFA
S31500005CC4002240F2027101200DF0B4BE0B2240F214
S31500005CD4027101200DF0AEBE4022032101200DF019
S31500005CE4A9BE0122032110460DF0A4BE0022032101
S31500005CF401200DF09FBE0222032101200DF09ABE61
S31500005D040122002109200DF095BE000007B50123EC
S31500005D14082269460020FFF78FF94FF6FD716846A1
S31500005D2400F0CAF8FF28024606D1012005490CF006
S31500005D346BF803B05DF804FB012003490CF064F82A
S31500005D44F7E700BF38D6030054D6030007B501238E
S31500005D54082269460020FFF76FF9684600F012F939
S31500005D6430B9044901200CF04FF803B05DF804FB88
S31500005D740149F7E771D603007FD6030007B501236F
S31500005D84082269460020FFF757F9684600F076F8BE
S31500005D94FF28024606D1012005490CF035F803B068
S31500005DA45DF804FB012003490CF02EF8F7E700BF69
S31500005DB494D60300A4D603002DE9F7430026022057
S31500005DC41B490CF021F834464FF6FF77DFF868805C
S31500005DD4DFF8689009F09EFCF5B2A8420AD809F0EB
S31500005DE499FC224603460220124903B0BDE8F0435B
S31500005DF40CF00AB8284626F027FAB842034615D00E
S31500005E042A46414602200CF01DF82846694626F02B
S31500005E1403FA01340220E4B20BF0E2FF10B1684643
S31500005E240BF064FF494602200BF0EEFF0136D1E782
S31500005E34C1D60300DAD60300CFD603007DFC0300E7
S31500005E4437B50020FFF7C2F804460220FFF7BEF874
S31500005E5405466946E4B20120FFF711F96946AAB27C
S31500005E64204600F05BF822460346034902200BF065
S31500005E74CBFF03B030BD00BFF1D60300F7B505462E
S31500005E8498B100264FF6FF77F4B2204626F0DCF9E7
S31500005E94B84209D06946204626F0BEF9082269466A
S31500005EA4284630F073FB08B11EB1FF24204603B028
S31500005EB4F0BD0126E8E700002DE9F34106460F464A
S31500005EC400254FF6FF78ECB2204626F0BDF9404592
S31500005ED411D06946204626F09FF9082269463046C5
S31500005EE430F054FB58B125B1FF24204602B0BDE87A
S31500005EF4F0810125E7E73146204626F0CBFA4FF636
S31500005F04FD739F4203D03946204626F053F9024AD0
S31500005F14535D01335355E8E7813E00200128F8B567
S31500005F240546164612D80B4F3B5C8BB926F0B2FADF
S31500005F34044638B94FF6FD739E4203D031462846CF
S31500005F4426F038F901237B552046F8BD6A24FBE781
S31500005F547624F9E7813E0020012808B50ED8084AC0
S31500005F64135C2BB94FF6FF7126F024F9002008BD07
S31500005F74013BDBB21354002BF8D1F3E76A20F6E7B2
S31500005F84813E002008B5FFF779FFBDE80840FFF71A
S31500005F94E3BF002307B5CDE90033012369464FF07B
S31500005FA4FF308DF802300FF079FE003818BF01205B
S31500005FB403B05DF804FB01207047012070470120FF
S31500005FC4704700000022014B1A707047C832002047
S31500005FD4002208B5124B1A70124B197811B11A70B7
S31500005FE4FEF787FE104B1A78032A0ED8DFE802F074
S31500005FF4020E1002012240F6B8310C481A701CF049
S31500006004ABFA17F0F5FE0A4B188008BD02221A7087
S315000060140022064B1A70BDE80840FEF76BBE00BFAF
S31500006024C83200204B220020713F00209832002005
S315000060345039002013B517F0DBFE144B144A1B88A5
S31500006044C01A00231370134A80B21370124B1A78C5
S31500006054012A05D0012201901A70FEF749FE019823
S3150000606440F6B73398420D4C09D92178B1FA81F13B
S315000060744909FEF7E9F90323237002B010BDFEF7C0
S31500006084CBF907481CF05CFAF5E700BF503900204D
S31500006094A0320020983200204B220020713F0020BD
S315000060A4C8320020002208B5134B1A70134B197816
S315000060B411B11A70FEF720FE114B1A78032A0ED876
S315000060C4DFE802F0020E1002012240F6B8310D4854
S315000060D41A701CF041FA17F08BFE0B4B188008BDA2
S315000060E402221A7040F2EE2106481CF035FABDE889
S315000060F40840FEF702BE00BFC83200204C22002032
S31500006104733F0020A83200205239002013B517F03F
S315000061146FFE144B144A1B88C01A00231370134ACB
S3150000612480B21370124B1A78012A05D0012201900D
S315000061341A70FEF7E0FD019840F6B73398420D4C0D
S3150000614409D92178B1FA81F14909FEF77EF90323C9
S31500006154237002B010BDFEF779F907481CF0F0F978
S31500006164F5E700BF52390020B0320020A8320020E3
S315000061744C220020733F0020C8320020002208B5BC
S31500006184134B1A70134B197811B11A70FEF7B7FD39
S31500006194114B1A78032A0ED8DFE802F0020E100219
S315000061A4012240F6B8310D481A701CF0D5F917F0E3
S315000061B41FFE0B4B188008BD02221A7040F2EE2116
S315000061C406481CF0C9F9BDE80840FEF799BD00BFB2
S315000061D4C83200204D220020753F0020B83200202E
S315000061E45439002038B517F003FE134B134A1C88A4
S315000061F400231370124A001B1370124B84B21A78D0
S31500006204012A03D001221A70FEF778FD40F6B7334F
S315000062149C420D4D09D929782046B1FA81F14909E4
S31500006224FEF726F903232B7038BD2046FEF722F924
S3150000623406481CF085F9F5E754390020C0320020E1
S31500006244B83200204D220020753F0020C8320020BD
S3150000625458B9134B01291B7803D123B911481CF0F3
S315000062646FB9002BFAD11048F9E7032802D00428A5
S315000062740BD070470D4B01291B7802D11BB90C4872
S31500006284EDE7002BFBD10B48E9E70B4B01291B7803
S3150000629402D11BB90948E2E7002BFBD10848DEE727
S315000062A4703F002098320020A0320020723F002068
S315000062B4A8320020B0320020743F0020B8320020FB
S315000062C4C03200202DE9F74F06460D4614461F46F8
S315000062D44FF0010BDFF8789003F10C0A15B903B0FF
S315000062E4BDE8F08F102DA84628BF4FF010083A4697
S315000062F4164B5FFA88F152F8040B524543F8040B27
S31500006304F9D101919AF8002011481A70002389F8EE
S315000063140F4089F800B089F80E3026F057F9324656
S3150000632401340B480199E4B212F801CB10F8013B91
S3150000633483EA0C0302F8013C931BDBB29942F3D8BF
S31500006344A5EB08051646ADB2C8E700BF53400020CA
S31500006354524000202DE9F74F01930D9B8046009390
S3150000636403461646BDF83090324A0F4600F10C013A
S3150000637453F8040B8B4242F8040BF9D11B784FF007
S31500006384020A137049232C4C237020464FEA192322
S31500006394A37384F80F9026F019F95246237883EAFA
S315000063A4162323706378734063704FF0000B1BE071
S315000063B4C2F11005A6EB0B039BB2ADB29D4228BFFA
S315000063C41D4600231FFA83FCD018AC45C0B21BD36C
S315000063D42A44D2B2AB44102A2F441FFA8BFB03D1B2
S315000063E4204626F0F3F80022B345E1D312B1204645
S315000063F426F0ECF8BAF1010F4FF000020ED04FF080
S31500006404010A4E46019FD0E717F803C014F800E0CE
S3150000641401338CEA0E0C04F800C0D3E72368009914
S3150000642400980B604346042103B0BDE8F04FFFF724
S3150000643449BF00BF5340002052400020F7B5099FD2
S31500006444BDF820500646CDE900571C46FFF782FFEB
S315000064542DB13346012229462046FFF733FF00209B
S3150000646403B0F0BD2DE9F7431D4604460E46174614
S31500006474BDF82890DFF834800346494628460122B1
S31500006484FFF720FF2B463A4631462046CDE90098D1
S31500006494FFF760FF042241460B9830F077F8002896
S315000064A414BF7E20002003B0BDE8F083793F0020AE
S315000064B473B51C46044D8B181E59CDE900452E6054
S315000064C4FFF7D0FF02B070BDFB40002000207047EC
S315000064D40020704700207047704770472DE9F3414C
S315000064E400240C4E0C4DDFF838800C4F56F8043B54
S315000064F40BB9D8F8003035F8022B39460092012042
S31500006504224601340BF080FC292CEFD102B0BDE801
S31500006514F08100BF48210020823A002006D70300FC
S31500006524FC21002008B5FFF7D9FFBDE8084000F0BC
S31500006534F9B8000007B50020FEF748FDC2B2282AC4
S315000065440DD8084B53F822300BB9074B1B68074983
S31500006554012031F81210009105490BF055FC03B0E7
S315000065645DF804FB48210020FC210020823A00202B
S3150000657406D70300FFF7B2BF7047000038B5002006
S31500006584FEF724FD04460120FEF720FD05460549D5
S3150000659401200BF039FCA9B2E0B2BDE8384000F0A6
S315000065A4D9B800BF11D703002DE9F34100240C4EDE
S315000065B40C4DDFF838800C4F56F8043B0BB9D8F86D
S315000065C4003035F8022B3946009201202246013468
S315000065D40BF01AFC292CEFD102B0BDE8F08100BF04
S315000065E448210020D43A002006D70300FC210020CD
S315000065F4F7B502AB0446174603E906001BF080F81C
S31500006604064620461BF08CF89DF800508EB1202CCF
S315000066140FD83B78012B33D84FF6FF703A4903EB7A
S315000066244313234431F81320824202D0013221F865
S3150000663413204FF6FF72354B354E33F8140036F8F7
S31500006644141090421CBF421C23F8142004F0FD02CF
S31500006654092A2ED19A8AB68A2A44B242B4BF9A82A9
S315000066649E8233F814308B422ED20025294B13F820
S31500006674012B94422ED00135112DF8D103B0F0BD73
S31500006684022BD6D14FF6FF724FF6FF701E4B33F82E
S315000066941410914218BF013104F1210218BF23F8E6
S315000066A4141033F8121081421CBF013123F8121062
S315000066B4BFE71D2CD5D15A8F56198E4203DA013AFB
S315000066C42A445A87CDE759878842CED22046FEF718
S315000066D418FBCAE717F085FF0F4B04461B78834265
S315000066E403D8DD210D4800F005FA4FF6FF710C4A78
S315000066F404EB04142C4432F814308B42BED001331C
S3150000670422F81430BAE700BF263B0020823A002064
S31500006714D43A00207DDA030091220020F9D903003F
S31500006724AA3B00205222002101482FF066BF00BF79
S31500006734823A00205222FF2101482FF05EBF00BF9B
S31500006744D43A002008B5FFF7EDFFBDE80840FFF78F
S31500006754F1BF0000014B23F810107047D43A002013
S31500006764032310B50F4C1022C4E904330E4B0F4912
S31500006774E3610023A16121660D49E01DC4E91912F4
S315000067840C49A3626362E3622367E366636722627A
S315000067942FF045FF204608492FF041FF2023A3711F
S315000067A410BD00BF002400206E3E00208EDA0300D8
S315000067B45E3E002097DA03009BDA03002DE9F84FCA
S315000067C4DFF87C80824698F80030894616460BB975
S315000067D4FFF7C6FF182707FB0A873D6FD7F86CB08B
S315000067E45D452BD9BC6E796E641BB44228BF344612
S315000067F44846294422462FF0D9FEBB6E2544AB42B7
S3150000680408BF0025A144361BABEB0502964228BF00
S31500006814164656B1182303FB0A83596E3246294499
S3150000682448462FF0C3FE3444354424B1182000FBF7
S315000068340A88C8F870502046BDE8F88F0024E3E7BC
S315000068440024002037B50446CDE9002102F0B7FF45
S31500006854DDE9002105462046FFF7B0FF0446284639
S3150000686402F0B3FF204603B030BD00002DE9F84323
S31500006874134C1E4623788146884617460BB9FFF704
S315000068846FFF002502F09BFF61690D4A536E3BB111
S315000068940135A94202F11802F8DC4FF0FF350AE08F
S315000068A4A942FADD182202FB0544C4E91898A76632
S315000068B42367E366666702F088FF2846BDE8F88327
S315000068C400240020FFF74CBF70B54FF060441C4B0A
S315000068D40026D3F8F0201B4D42F00102C3F8F02045
S315000068E4D3F8FC200C2042F08072C3F8FC20164B2F
S315000068F4C4F8B03F0223C4F8006EC4F8806EC5F82D
S31500006904F03002F025FC114B00F5D52000F2FC40D6
S31500006914B0FBF3F00E4A0F4B01382861C4F8406E01
S315000069241A600D4BC4F8803E4FF48073C5F80433E7
S31500006934D4F8003E43F48073C4F8003E70BD00BF33
S3150000694400ED00E0000004E055CEACC5F8590D009A
S31500006954FF030040001000E00D00010010B5012403
S31500006964104B0020C3F8444402F0BAFF2346042225
S315000069740321002003F010F820460EF0D5FEFFF7A1
S31500006984A3FF0EF0D2FE084B1C70FFF79BFF2346B5
S31500006994402206490648FFF769FF064B1860C00FF8
S315000069A410BD00BF00D0034001400020BB400020C2
S315000069B4A2DA030068200020034BD3F8F000003865
S315000069C418BF0120704700BF00ED00E0D123054A3F
S315000069D4037013784170090A8170591CC3701170D1
S315000069E404207047004100202DE9F74F91F80080FC
S315000069F48246B8F1040F0F465FD917F0F9F94FF63E
S31500006A04FF76002408F10505DFF8B890EDB2019091
S31500006A14D9F8F0200AB1A54207D8281B18BF0120CF
S31500006A2404233B7003B0BDE8F08F17F0E1F9019B36
S31500006A34C01A80B2B0F5FA7F41D8A4B3012C36D07F
S31500006A44EA1E04F1010B94425FFA8BFB19D1F4B2EE
S31500006A544FF06042D2F8801ECB0710D5D9F8FC104F
S31500006A6441F08071C9F8FC10D2F8001E41F480711F
S31500006A74C2F8001E116A0029F0D082F820405C4654
S31500006A84C6E7AA1E944202D1C6F30724E0E76A1EAB
S31500006A94944210D0544414F8024C31462046FEF772
S31500006AA45DFD0646D4E75B244FF0010BD0E7444670
S31500006AB44FF0020BCCE75D24CAE70020B0E70120C3
S31500006AC4AEE700BF00ED00E000B5084B91B04022F0
S31500006AD469461868FFF7B6FE20B1C2B269461220AD
S31500006AE40EF07EF811B05DF804FB00BF68200020AC
S31500006AF442DE704738B504460D4600F0B5FD02F097
S31500006B0456FE294620460EF02DF82B462246054908
S31500006B14102007F029FA29462046BDE83840FFF739
S31500006B24E7BF00BFB2DA03006E4B2DE9F0415A68A5
S31500006B346D4CA2655A6AE2656C4AD2F80012216667
S31500006B44D2F8042262669A6AA266DA6AE2661A6B66
S31500006B5422675A6B6267A26BDB6B12F0040FA367A2
S31500006B64D4E90F3508BF1D4617F026F900228542E1
S31500006B740346606522655DD35D4A95425AD8AA6983
S31500006B846264E969A164B4F85810C1F308010629DE
S31500006B9454D158498A4251D357498A424ED2118810
S31500006BA44DF64262914249D140F201706268C4F8DE
S31500006BB49420A268C4F89820504A934238BF1346DA
S31500006BC44F4A93423DD3D31AE3640023C4E91F33E7
S31500006BD4C4E92133C4E92333494EDFF818C1DFF889
S31500006BE418E1AE4233D8D4E91FC7D4E92165D4E904
S31500006BF423124FF0000E013BDBB2FF2B42D1BEF154
S31500006C04000F05D0C4E91FC7C4E92165C4E92312EE
S31500006C14B4F85830C3F308030C2B41D8022B57D9C8
S31500006C24DA1E092A54D8DFE802F05A374649535384
S31500006C345353535000221D46C4E911224FF42060D9
S31500006C44BAE71968B1F1CD3FBDD10433B9E756F8B7
S31500006C54042D6245C5D37245C3D2D107C1D50021DF
S31500006C64284F57F8048B9045BBD00131C9B2062989
S31500006C74F7D10BB9052301E0013BDBB204EB830139
S31500006C84CA67AEE7E0464FF0010EBC4637462E46CD
S31500006C940D4611464246AEE740F60220BDE8F081B5
S31500006CA43B2B15D1184B9B6913F0020F40F202538C
S31500006CB418BF1846F2E740F60320EFE740F6042330
S31500006CC4B0F5206F08BF1846E8E740F60520E5E76B
S31500006CD440F60722013B4B2B98BF1046DEE740F6F1
S31500006CE40120DBE700ED00E00000002000E100E009
S31500006CF4201A00204C430000686603009C00002014
S31500006D04401A00207C0000200080014A38B1032884
S31500006D1404D004280CBF02200320704701207047CA
S31500006D242DE9FF47184B03241A889B78ADF80C20ED
S31500006D348DF80E30012601F0C7FA144FDFF85080A3
S31500006D4403AD15F8013B012217F8339007EBC30393
S31500006D54D3F804A048460023514602F01DFE4146DE
S31500006D645FFA8AF001F0C8FA013C01235246514603
S31500006D744846CDE9006602F0B5FD14F0FF04E0D103
S31500006D8404B0BDE8F08700BFC5DA0300C8DA030023
S31500006D94196E000008B5FFF7B9FF032816BF024BAA
S31500006DA40020185C08BD00BF763F002008B5FFF739
S31500006DB4ADFF03281CBF014B195408BD763F0020C4
S31500006DC408B5FFF7A3FF032805D0034A135CB3FAFB
S31500006DD483F35B09135408BD763F002008B5FFF71B
S31500006DE495FF03280FD03023084A12F8301002EB1F
S31500006DF4C0005943064B40685B5823FA00F0C04371
S31500006E0400F0010008BD0020FCE700BFC8DA03005B
S31500006E1414C0034070B50446FFF7E0FF01460025A1
S31500006E2420460E46FFF7DAFFB0420146F7D1013598
S31500006E34052DF5D12046FFF7ADFF8842204609D03F
S31500006E44FFF7B4FF2046FFF7A5FF0146204608F0EA
S31500006E5495F970BDFFF7B4FF2046FFF79BFF014687
S31500006E64204608F08BF92046FFF7AAFFEAE7000060
S31500006E7410B502F0F3FD044602F0E8FD00220121FC
S31500006E8401FA02F3234014D01D4B1E4933F8123085
S31500006E94062B14D040F2072293420DD11A4A1B48FE
S31500006EA41468844208D14CF23C33538013880B8017
S31500006EB415E00132102AE3D1124A13800FE04FF293
S31500006EC40F03114A5088984216D11388B3F5406FC0
S31500006ED428BF4FF4C0630B804CF23C335380094BFC
S31500006EE41A8840F201739A4201BF094B094AD2E952
S31500006EF40001C3E9000110BD4FF4C063EBE700BF16
S31500006F04E0DA0300223C00200000002007020FF014
S31500006F145436002094000020014B1888000A70475C
S31500006F24223C0020014B1888704700BF223C0020F9
S31500006F342DE9F04F4D4D0446AB6BD5F850B05A07CA
S31500006F4447BF0027B846D5F84CB0D5F85480D5F8D5
S31500006F5440A05DBF464FD5F83CA0DFF83C91DFF872
S31500006F643C9113F0080F434B434A18BF1A46B7EB3C
S31500006F7408061FBF6421730801FB0B33B3FBF6F34A
S31500006F8487B01CBF9BB205933C494B46CDE9017AB9
S31500006F94CDF8008008BF059601F02EF9B3B2CDE90D
S31500006FA400932046059B36491FFA8BF201F024F91B
S31500006FB4AB6B5B070AD49C3E5E4507D16A6D314BC9
S31500006FC49A4203D22046304901F016F9BA4501D84F
S31500006FD4C24504D24A4620462C4901F00DF9204602
S31500006FE406F0BCFFD5E91823134337D020462849B9
S31500006FF401F0EEF800260127DFF8A480DFF8A4905C
S315000070042A6E07FA06F3134207D058F82620137897
S315000070141BB14946204601F0DBF80136202EEFD19C
S3150000702400260127DFF87880DFF878906A6E07FA81
S3150000703406F3134209D008EB8603D3F880201378AD
S315000070441BB14946204601F0C3F801361D2EEDD189
S31500007054204607B0BDE8F04F01F0C8B820460D49F8
S3150000706407B0BDE8F04F01F0C7B800BF000000202C
S31500007074401A002005DB03000CDB030014DB0300CD
S3150000708442DB03009C0000207BDB0300A7DB03003C
S31500007094C5DB0300F4DB030000DB03007AF5030021
S315000070A434E503009DEC03002DE9F8430446FFF79D
S315000070B439FF40F6052398420ED8B0F5206F0DD857
S315000070C440F20253984217D040F2017398421ED000
S315000070D440F2015398420AD0BDE8F883A0F6022094
S315000070E45F4D03281FD8DFE800F0386598B55D4981
S315000070F4204601F081F811E020465B4901F07CF856
S31500007104574B5A6C2046594901F076F806E0544A22
S315000071142046D2E92523564901F06EF82046BDE8FB
S31500007124F84306F01BBF2046524901F065F895F86E
S315000071346C309F0703D520464F4901F05DF895F85A
S315000071446F305E0603D520464C4901F055F895F993
S315000071546F30002BE2DA4A49CAE72046494901F072
S315000071644BF895F86830980704D020466A6C3F4976
S3150000717401F042F895F96830002B04DA20466A6F6C
S31500007184414901F039F800260127DFF80881DFF8C4
S315000071941491AA6E07FA06F3134207D058F826206C
S315000071A413781BB14946204601F026F80136082E0D
S315000071B4EFD1B3E73549204601F01EF82B492046A6
S315000071C46A6C01F019F895F86930590703D5204619
S315000071D42F4901F011F895F96930002B04DA20469D
S315000071E46A6F294901F008F808262A4FDFF8B480A7
S315000071F4AB6EF340DA0707D557F8262013781BB190
S315000072044146204600F0F8FF0136102EF0D195F8DD
S315000072146830002B82D120496AE72049204600F0D5
S31500007224EBFF20466A6C114900F0E6FF1026194F61
S31500007234DFF87080AB6EF340DB0707D557F82620DE
S3150000724413781BB14146204600F0D6FF01361A2EAC
S31500007254F0D163E72046124900F0CEFF6A6C51E78D
S315000072640000002009DC030046DC030076DC030092
S315000072748FDC0300A9DC0300C1DC0300FBDC030094
S315000072842EDD03006ADD03008FDD0300B3DD03009A
S31500007294CADD0300CCE4030010DE030040DE030075
S315000072A459DE0300ABDD03002DE9F84F0446002642
S315000072B4154DDFF85C80DFF85CA0DFF85C902A46A9
S315000072C45146204658F8043BF7B200F081FF2A786D
S315000072D4AB460135002AFAD19BF8012092B10B493D
S315000072E407F00307032F08BF4946204600F070FF46
S315000072F4204606F033FE9BF801300136002BDED122
S31500007304BDE8F88F4946F0E728E603004CF9030088
S31500007314040000207ADE03002967030000F00CB89D
S3150000732400F00AB800F008B800F006B800F004B897
S3150000733400F002B800F000B872B61EF0080F09D0CB
S315000073441EF0040F0DD0DFF850E0AEE8FF1F6FF01B
S3150000735402000CE0DFF840E0AEE8FF1F6FF00E001D
S3150000736405E0DFF834E0AEE8FF1F6FF0060069467B
S31500007374EFF309828EE8070086460848084C8545DF
S3150000738401D3A54501D384F30888FFF7CDFB84F325
S31500007394088816F0EDFC00000400002020110020EF
S315000073A4401A0020FFF7C6BF7047000000F07E6356
S315000073B4B3F17E6F70B505460E46144616D104F039
S315000073C4BFFB18B19A210D48FFF794FB22463146BC
S315000073D4C5F30B0002F0FEFB044604F0BFFB5CB1F0
S315000073E49D21BDE870400548FFF784BB520816F09E
S315000073F463FC08B18F21F4E770BD00BFF4E6030017
S3150000740437B515461A464BF234637F2D08BF00255F
S315000074149942044619D17F2241F2020168460823A3
S31500007424FFF7EEFF0822684626492FF0AFF830B979
S3150000743408237F2241F2F0116846FFF7E1FF6B460D
S3150000744403CB2060616003B030BD41F2F013994272
S315000074541BD100211C4B9D6CD86CCBB25AB9002AA7
S31500007464F1D0E0540133D9B207294FEA102002F1D2
S31500007474FF32F4D9E7E76554013104294FEA1525AB
S3150000748402F1FF32E9D10B46E9E701F47043B3F5A3
S31500007494805F0AD1C1F30B0404F17E6402FB05414B
S315000074A403B0BDE830402FF081B801F46043B3F572
S315000074B4005FC8D1C1F30B040449214402FB051142
S315000074C4EEE700BF7AE703000080E00F00E00B0060
S315000074D470B5054616461C46DBB14BF23463994239
S315000074E410D1082C28BF08247F2241F2020123462A
S315000074F4FFF786FF2246284606492FF047F840B98B
S3150000750441F2F011234632462846BDE87040FFF7A3
S3150000751477BF70BD7AE703002DE9F7430446E00719
S315000075240F46154603D5DD213548FFF7E3FAE9078B
S3150000753403D5DE213248FFF7DDFA04F47043B3F5D0
S31500007544805F3ED1C4F30B0404F17E642D4A6B1EA6
S3150000755423449342264603D9E3212948FFF7CAFA6E
S31500007564DFF89C9006EB050846453DD1A2070ED0F0
S315000075744FF6FF7337F8022BA01E43EA0243042298
S315000075840DEB02010193FFF711FF0234023DAB0735
S315000075940ED0023D25F00103FB5A04226FEA034391
S315000075A46FEA13430DEB020160190193FFF7FEFE28
S315000075B41DB32A463946204603B0BDE8F043FFF71B
S315000075C4F5BE04F46043B3F5005F05D10E48C4F379
S315000075D40B0404442646C3E7EA210948FFF78AFA5E
S315000075E46FF00F060024BBE716F8013BFF2BBBD058
S315000075F4F4214846FFF77EFAB6E703B0BDE8F08308
S31500007604F4E60300FF1FE00F00E00B00FFF786BE61
S315000076141FB5124A01AB10685168128903C31A8058
S315000076240D238DF80A3003230D4C082124208DF8F0
S315000076340B3001F0EBFE204601A902F0E7FB4FF404
S3150000764400610223074A04F5005004F58054C2F889
S31500007654841183615160E36104B010BD82E70300C5
S315000076640080014A00E100E0014802F0BEBB00BF11
S315000076740080014AA52803D10021024802F0A6BBD6
S31500007684704700BF0080014A024B586800F00100B1
S31500007694704700BF0080014A024A536A002BFCD19E
S315000076A4704700BF0080014A0020704700207047E1
S315000076B47047000007B572B602F079F88B4B8C4917
S315000076C45B6940228B6000230B764B768B76F02326
S315000076D4CB760B774B778B77CA77802281F820207D
S315000076E481F82130E023602081F82230814B81F833
S315000076F4232083F8002383F8012383F8022383F8E5
S31500007704032383F8042383F8052383F8062383F8E5
S31500007714072383F8082383F8092383F80A2383F8C5
S315000077240B2383F80C2383F80D2383F80E2383F8A5
S315000077340F2383F8102383F8112383F8122383F885
S31500007744132383F8142383F8152383F8162383F865
S31500007754172383F8182383F8192383F81A2383F845
S315000077641B2383F81C2383F81D2383F81E2383F825
S315000077741F2383F8202383F82103202083F8222360
S3150000778483F8232383F8242383F8252383F82623E5
S3150000779483F8272383F8282383F8292383F82A23C5
S315000077A483F82B0383F82C0383F82D2383F82E23E5
S315000077B483F82F2383F8302383F8312383F8322385
S315000077C483F8332383F8342383F8352383F8362365
S315000077D483F8372383F8382383F8392383F83A2345
S315000077E483F83B2383F83C23CB6823F4E0631B0430
S315000077F41B0C43F0BF6343F40133CB604B6943F086
S3150000780410034B614FF4E0234B6203F009F9FFF7D1
S315000078142FFBEFF308834FF0CD31374A043B9342F5
S3150000782460D2364A002192B235482EF0E6FE62B6A0
S31500007834684602F0F3F9334A936DDB0313D4536BB2
S3150000784423F4FF0323F4FE4343F4BC1343F4A0637D
S315000078545363136B23F4704343F440431363136B72
S3150000786443F4E06313639DF80130012B0FD19DF8B7
S31500007874003063B94FF000531B68234B1B68234B3E
S315000078841B68234B1B68234B1B68234B1B68234A2B
S31500007894D2F8803043F00303C2F8803003F0B0FC22
S315000078A402224FF040231A6703F03EF801F0BAF9BA
S315000078B4002300938DF80430012368468DF80330C5
S315000078C401F0F0FF00F0F0F816F0A4FA03F09AFCC9
S315000078D400F0FAF80EF068FC114803F067FE03B0F6
S315000078E45DF804FB43F8041999E700BF0040000063
S315000078F400ED00E000E100E0E010002014100000BC
S31500007904A000002000C000400040002000800020AD
S3150000791400C000200000012000400120008000403B
S3150000792470EB030040F2016016F022BAFEF7D4BDF4
S3150000793408B500210B20FEF7CDFDBDE80840FEF793
S31500007944CCBD08B1FDF72ABAFDF727BA032000F02B
S31500007954B1BA000008B5FFF7DFFA044B0B2896BF4F
S3150000796400B2184603EB800008BD00BFD2E803004E
S3150000797408B5FFF7D7FA044BC0F30F2253F82230A9
S31500007984C0B203EB800008BD9CE8030010B5FFF706
S31500007994C3FA0446FFF7C6FA10F0FF0005D1012C1E
S315000079A423D164F07F04E4B215E0072CF9D801A3CF
S315000079B453F824F0DB790000A7790000D979000098
S315000079C4DF790000DF790000E3790000E779000041
S315000079D4EB7900000924204610BD0224FBE70324AA
S315000079E4F9E70B24F7E70624F5E70446F3E700BFB7
S315000079F438B50D46044688BB284B4A1E18605042CB
S31500007A045041013D06F034FB032D46D8DFE805F06E
S31500007A1402131E2001210846FDF7C1F9FFF734FEC3
S31500007A241F4B187010B1A520FFF724FEBDE838409F
S31500007A34012006F01DBB02210120FDF7B0F9FFF776
S31500007A4423FE50B3BDE83840FFF726BE0421F3E712
S31500007A5405210120BDE83840FDF7A1B9104B1B787C
S31500007A641BB101210F4802F0B1F9631E5842584177
S31500007A74013C06F0FEFA032C0FD8DFE804F00208F6
S31500007A840A0C012006F0F5FA01210020E2E70221A2
S31500007A94FBE70421F9E70521F7E738BD00390020A3
S31500007AA4744100200080014A054AD2F8203402F5C8
S31500007AB400521B0C1B04C2F82034024A13607047A0
S31500007AC400C003405430002008B503F099F818B1FB
S31500007AD492210448FFF70EF8BDE80840024903481E
S31500007AE403F042B902E90300181E002008330020FF
S31500007AF4134A1449D2F82434D2F820241340124AE3
S31500007B049BB21360D1F80001400102D50868400118
S31500007B1406D4D1F80001800105D50968880102D58B
S31500007B2443F480331360074BD3F80011490506D597
S31500007B341B685B0542BF136843F400331360704748
S31500007B4400C0034000E100E000390020012838B5F8
S31500007B5404460BD0831E012B07D9042824D00528FC
S31500007B6401D101F083FE002400E0022401F018FE96
S31500007B7405460121204603F073F8284601F014FE59
S31500007B8401F00AFE01F017FE03F014F901F006FEF7
S31500007B9401F006FE05460021204603F061F828465A
S31500007BA4BDE8384001F000BE0324DFE7FFF7CEBF8F
S31500007BB42DE9F04F89B00DF0B5FD0546002840F0DB
S31500007BC4EA80764EDFF8EC813168D8F8000015F0CB
S31500007BD487FA0446002828D033682C46D3E90001E6
S31500007BE49A6912689047336804A89B699B6898470A
S31500007BF4336802209B69DB689847326805985368A6
S31500007C04E7B2B3FBF0F3BB42916904F1010454D823
S31500007C14CB680020984733689B695B68984731684E
S31500007C24D8F8000015F05CFA044600275C4BDFF830
S31500007C3494A1DFF89491009314BB5A4BFB5C002B80
S31500007C4400F08F80D9F8001002ABD8F8000003AA20
S31500007C54019115F07FFC544B0199984208D078B9EC
S31500007C64039B012B0CD0D8F8000015F0B9FC019940
S31500007C74DAF80030D8F800001A6815F099FB0446C3
S31500007C84009B01370133272F0AF1040A009309F1F7
S31500007C940409D1D1002C0CBF01220022434B1A70D7
S31500007CA465D0434B2344072B71D8072B6FD8DFE8E5
S31500007CB403F05D6A6E6C6E6E6E7012680B6907FB7C
S31500007CC40020984799E7D9F8003003AA194402AB73
S31500007CD4019115F03FFC344B019998422ED030B3F4
S31500007CE40136344BF1B259451868ECD3324BFB5C80
S31500007CF4002BC5D05E46DFF8BCB0F3B27E2BDBF8B2
S31500007D040000BDD8D9F8001002AB314403AA019192
S31500007D1415F020FC244B9842B2D00199DBF8000000
S31500007D2415F05EFC013604460028E6D0A8E7039B5E
S31500007D3483B9009B029A1B789A42D1D0009BDAF849
S31500007D4400201B78D8F8000015F09AFA0028C7D04E
S31500007D540446CBE7174B0191186815F041FC0199CD
S31500007D64ECE7164B264617F803B0BAE7C225114BC3
S31500007D741B681B7C1BB1D3211148FEF7BBFE2846AA
S31500007D8409B0BDE8F08FC325F1E7C425EFE7C525A3
S31500007D94EDE7C125EBE7C625F1E700BF941E0020F9
S31500007DA4786D03008C6C03000BE000F06B4100203F
S31500007DB4FF1FFF0F901E0020B36C0300C86B030067
S31500007DC47EE90300F06B0300DC6C0300262970B522
S31500007DD406460C4615461AD8144A127822B3144A93
S31500007DE41068144A52F82110134A125D3AB1324609
S31500007DF415F02AFBC0B1BDE87040FDF7BFBB7F2D6F
S31500007E0408BF00253246294415F084FAF2E7FF2913
S31500007E1403D9BDE87040FFF75BBB40F20111BDE832
S31500007E2470400648FEF766BE70BD00BF6B41002079
S31500007E34901E0020DC6C03008C6C03007EE90300BA
S31500007E442628F8B504460D46164619D81449097865
S31500007E5429B31449144F0868144951F824103C5D99
S31500007E643CB1126815F0A4FAC8B1BDE8F840FDF7B4
S31500007E7485BB7F2D08BF0025294415F001FAF3E7D9
S31500007E84FF2805D91A463146BDE8F840FFF744BB3A
S31500007E944FF49A71BDE8F8400548FEF72BBEF8BDCD
S31500007EA46B410020901E00208C6C0300DC6C0300E8
S31500007EB47EE9030008B5084B1B7863B1074B002223
S31500007EC453F82010064B186815F0FEFA18B1BDE8F1
S31500007ED40840FDF753BB08BD6B410020DC6C030072
S31500007EE4901E0020104430B5054602B930BD01F09D
S31500007EF40F030A2B34BF30243724013A23440909DB
S31500007F0405F8013DD2B2F0E7F0B519B3002820DA3E
S31500007F142D23B0F1004F137000D04042012119E027
S31500007F24801B8642ECB205F10105F9D914B9BCF1FE
S31500007F34000F05D04FF0010C4D1C30345454E9B2F7
S31500007F44013B13F0FF0309D130305054481CC0B232
S31500007F54F0BD002109234FF0000C024F002557F80D
S31500007F64046BDEE7F4E903002DE9F04F4FF0000B54
S31500007F7497B004AC8046894615469A465E4627461F
S31500007F84297859B9E41BE4B2224639464846C04723
S31500007F94002840F0AD803444E0B2AAE0252916D08A
S31500007FA4BBF1000F17D1204600F8011B044614ABA1
S31500007FB49C42C0F0E180E41BE4B2224639464846BE
S31500007FC4C047002840F094802644F6B2D3E0BBF1C3
S31500007FD4000F00D101352978782906D8612907D8F8
S31500007FE425295ED03AD80029CCD04FF0000BDEE725
S31500007FF4A1F16202162AF8D801A353F822F000BFB1
S31500008004B18000003581000081810000EF7F00000F
S31500008014EF7F0000EF7F0000EF7F0000EF7F00009E
S31500008024EF7F0000EF7F000081810000EF7F0000FA
S31500008034EF7F0000EF7F000045810000EF7F000026
S31500008044EF7F000045810000EF7F00008181000082
S31500008054EF7F0000EF7F000097800000392916D8D3
S315000080642F29C2D96A7802F0DF02582A40F0AC8080
S31500008074322905F1010B40F09B80042220465AF870
S31500008084041B89B2FFF72EFF5D460446ADE7582967
S31500008094ABD15AF8041B02222046C9B2FFF722FFCD
S315000080A402E0204600F8011B04469EE74FF0000B51
S315000080B4DAF800300293DAF804300193013B0393B3
S315000080C4019B9B4502D10AF1080A8EE7029B2046D2
S315000080D413F80B100222FFF705FF14AB984204466F
S315000080E40DD3C41BE4B2224639464846C04718B1EC
S315000080F4002017B0BDE8F08F26443C46F6B2039B39
S315000081045B4581BF2046202200F8012B044614ABB0
S315000081149C420AD3E41BE4B2224639464846C04789
S315000081240028E5D126443C46F6B20BF1010BC7E71D
S315000081345346204653F8042B9A4600F8012BB3E71E
S31500008144E41BE4B22246394648465AF804BBC04703
S315000081540028CDD12644F6B2C4B21BF8042001305F
S31500008164002AF9D1224659464846C0470028BFD1BD
S3150000817483462644F6B23C46013501E76C29DAF813
S3150000818400000AF1040B0ED16B78752B14BF012184
S31500008194002101D0642B00D101352246FFF7B4FE3D
S315000081A4DA46044421E775290CBF00210121F4E7CE
S315000081B4342909D15AF8045B0422290C2046FFF716
S315000081C491FE0422A9B25DE74FF0010BEFE600BF72
S315000081D40EB403B503AA52F8041B019205F0B8FFC6
S315000081E4C0B202B05DF804EB03B070470149FFF773
S315000081F4EFBF00BF296703000EB433B505AA52F8D2
S31500008204041B0546019205F0A3FF04462846FFF722
S31500008214EDFFE0B202B0BDE8304003B0704708B5E8
S3150000822405F096FFC0B208BD2DE9F843174B1F6D44
S315000082345B6D1F4000D5FEE701260025144CDFF8D0
S315000082445480DFF85490374217D02368C8F850603A
S315000082549BB1A168284601316268A1609847637B97
S31500008264012B0AD148B909EB45131A7B60F3410285
S315000082741A731A7F60F341021A770135082D4FEA03
S31500008284460604F11004DED1BDE8F883000004407C
S31500008294F827002000200440542F002070B504461F
S315000082A40125084E04B970BD94FAA4F0B0FA80F022
S315000082B405FA00F324EA030456F82030002BF1D023
S315000082C49847EFE71433002008B5192001F08EFA19
S315000082D428B14FF00072074BC3F880211A601A20A8
S315000082E401F084FA28B14FF08062024BC3F8802172
S315000082F41A6008BD00E100E038B504460D4601F0F9
S315000083045EFA034B43F82450BDE8384001F05DBAE9
S3150000831414330020064BD3F82404D3F8202403F5A1
S315000083240053104000F05530C3F82004FFF7B6BFE1
S3150000833400C00340064BD3F82404D3F8202403F5E5
S315000083440053104000F0AA30C3F82004FFF7A6BF7C
S3150000835400C0034000230B707047000010B500F006
S3150000836471FB0A4C0A4B19682368C31A01B10BB98D
S31500008374206010BD4A699A423ABF9B1A0022D21A5B
S315000083844A6128BF00238968F0E700BF88340020CB
S31500008394F8380020C38870B504460D463BB902F090
S315000083A4BDFC8542064602D202F0D2FC35460F4990
S315000083B465610B68ABB90C60A36011E0AD1A9A68ED
S315000083C4184665612AB113465A69AA42F6D950B1CC
S315000083D41A4613468460A36013B15969491B59614F
S315000083E470BD0020F0E70C60F5E700BFF838002008
S315000083F438B50F4B0F4D1C682B6802205B691C4473
S3150000840400F054FB204600F025FB00230A492A68A5
S315000084140B70D088800702D501230B7038BD926893
S31500008424002AFBD050690344012BF2D9F6E700BFBA
S3150000843488340020F8380020AA40002070B516467B
S315000084449DF81420C0E903360271049ABDF8183069
S3150000845402600022C380826004460D4600F0F2FAF0
S315000084643044A0613DB9E368656113B120462168D3
S31500008474984796B1354601F0A2F90646FFF76EFF16
S3150000848429462046FFF786FF054B1B68A34201D108
S31500008494FFF7AEFF304601F098F9002070BD00BF2B
S315000084A4F838002000220C490B687BB183420AD1BC
S315000084B483687AB1936083681BB15A6941690A4437
S315000084C45A61002070471A469B68EEE70028EFD0F1
S315000084D4022070470B60EEE7F838002070B501F013
S315000084E46EF9144E05463478FCB9134B1C60134BD5
S315000084F41C60134B1C8000F06BFA012000F0D6FAC6
S3150000850400F022FB0F4B0246186020B9284601F002
S315000085145CF9232070BD234640F2E7310A482DF06A
S315000085246DFE0A4B186001233370284601F04DF99D
S315000085340020EFE78D400020F83800208834002022
S315000085441A3C0020F438002018FCFFFF9434002065
S315000085542DE9F0410546F8B101F031F90F4F064611
S31500008564FFF7FCFE2846D7F80080FFF79BFF04467A
S3150000857428B1304601F029F92046BDE8F081A84526
S315000085843B6803D123B1FFF733FFF2E7002BF0D1A9
S31500008594022000F097FAECE72224EDE7F8380020F1
S315000085A470B586B015461E460446059180B1FFF7A0
S315000085B4CFFFBDF82C30002202939DF828302046C8
S315000085C4CDE9006305992B46FFF738FF06B070BD69
S315000085D42220FBE738B50C46054698B191B1002335
S315000085E40B7001F0ECF80121074B1B680BB12278E4
S315000085F41AB101F0EAF8002038BDAB4214BF9B68FB
S315000086042170F3E72220F7E7F8380020F0B51F467B
S31500008614002387B00D46164604468DF81730A0B1E0
S315000086240DF11701FFF7D6FF9DF817207AB9BDF8AB
S315000086343430294602939DF830302046CDE9007344
S315000086443346FFF7FBFE07B0F0BD2220FBE703200D
S31500008654F9E70000F8B50C460546C8B1C1B101F00A
S31500008664AEF80646FFF77AFE6B692360134B1B6868
S31500008674AB420FD023B9304601F0A7F803201CE023
S31500008684596922689B680A442260F1E700230FE0D7
S31500008694222012E0276800F0D5F9094D2B68C01A8C
S315000086A48742F3D900F0CEF92B68226813441B1ACB
S315000086B43046236001F089F80020F8BDF838002020
S315000086C4883400202DE9F0410746884601F077F802
S315000086D400260546124B1C6824B9284601F075F895
S315000086E41B2016E063691E44E388BB4215D100F0E3
S315000086F4A9F90C4C2368C01AB0420CD200F0A2F9B6
S3150000870422683244121A2846C8F8002001F05DF89F
S315000087140020BDE8F0810022F5E7A468DCE700BF8D
S31500008724F838002088340020014B1878704700BFC1
S31500008734AA40002038B501F042F8054600F082F957
S315000087440446284601F041F8204638BD70B501F0CC
S3150000875436F8064600F076F9084B04461D880120D3
S31500008764ADB200F0C7F918B100F06CF90446013552
S31500008774304601F02AF82046294670BD1A3C0020EE
S31500008784014B1868704700BFF4380020044B1B687F
S3150000879458434FF47A73B0FBF3F00130704700BFCF
S315000087A4F4380020012300B58BB08DF80B30FFF7A9
S315000087B4EDFF00230146CDE90033074A0DF10B0313
S315000087C403A8FFF723FF18B99DF80B30002BFBD144
S315000087D40BB05DF804FB00BF598300000A4B10B5CB
S315000087E41B680C4683420CD3084B4FF47A72196803
S315000087F40023A0FB01012DF001FD013020600020C3
S3150000880410BD2120FCE700BF94340020F43800207A
S315000088140F4B10B51A689AB14FF47A71531E13426E
S31500008824A0FB01010ED1B2FA82F2C2F11F04531C5D
S31500008834D243E04001FA03F3184321FA02F2024359
S31500008844104610BD00232DF0D9FC0246F8E700BF00
S31500008854F4380020164B70B58342164B15468B41EF
S3150000886424D3154B1A680AB34FF47A76A0FB060391
S31500008874541E144006FB013111D1B2FA82F3C3F13E
S315000088841F025E1CDB4301FA06F6D04021FA03F30D
S3150000889430431843D140C5E90001204670BD00238A
S315000088A42DF0ACFC0024C5E90001F6E72124F4E729
S315000088B4EFA7C64B37894100F4380020C2072DE9DB
S315000088C4F34704460BD53F4A138801339BB2138002
S315000088D4FFF744FD3C4B1B680BB1FFF789FDA3076B
S315000088E46DD500F06CFF002605463746FFF736FDCA
S315000088F4B146DFF8D480D8F800400CB163698BB177
S315000089040022324B012F1A7002D1022E08BF1F70AB
S31500008914002C44D0FFF76CFD284602B0BDE8F047B2
S3150000892400F053BF23461A792179914288BF1C4629
S315000089349B6813B15A69002AF5D0284600F045FF12
S31500008944256985B300F07EF8A269861AF317B54245
S3150000895479EB030328DA23691344A361012322690B
S3150000896482B17BB9A91B019100F029FF82460199C6
S315000089742046FFF70FFDA369226950461344A361FD
S3150000898400F023FFE368E688013713B12046216827
S31500008994984700F014FF0546FFF7E0FCABE702201A
S315000089A400F090F8B8E72E4600F009FF824620460C
S315000089B4FFF778FD504600F008FF0023CFE702B02A
S315000089C4BDE8F0871A3C0020F83800205641002004
S315000089D41FB50024184B18689A880290D3F806002D
S315000089E49B7A009002A8ADF80C208DF804308DF81F
S315000089F408408DF80C4001F07BF8694601208DF89B
S31500008A04004001F039F84FF090431F219A6922F093
S31500008A141F029A61094A51619A6A12F00802FBD14F
S31500008A241A62012001F042F84FF48062044BC3F845
S31500008A3480211A6004B010BD18EA03000020004823
S31500008A4400E100E04FF090439A6A1207FCD4186ADA
S31500008A54704700004FF09042936A1907FCD4136ADA
S31500008A64116C5269120704D4CA1A032A01D899420E
S31500008A740ED1C21A022A98BFD81CB0F1FF3F38BFE4
S31500008A8401384FF0904318649A6942F008029A61DB
S31500008A94054A13783BB14FF09041CB6B43F0020388
S31500008AA4CB630023137070474F22002082074FF0D8
S31500008AB4904200F00103916948BF43F008030B4359
S31500008AC493617047820700F001030AD50121084A21
S31500008AD443F0080311704FF09041CA6B22F0030271
S31500008AE4CA634FF090418A6922EA03038B61704797
S31500008AF44F2200204FF0904301285B6904D00228DE
S31500008B0405D1C3F3C000704703F00100704700208D
S31500008B147047000010B500F052FE4FF09043044633
S31500008B245B691A07074A03F0010003F00D0348BF07
S31500008B3440F002005361FFF7C1FE2046BDE8104035
S31500008B4400F043BE002000481C2000F001BB0000DA
S31500008B5400210846F0B52D4C2D4A2368156845B109
S31500008B641D68002D47D01D791679AE4284BF134681
S31500008B7401210130052802F10802EFD101B1236079
S31500008B8400210D462348244A0368166846B11E6828
S31500008B94002E33D01E791779B7423CBF1346012104
S31500008BA40135052D02F10802EFD101B103602168F8
S31500008BB40B6833B34FF04022936F097923F0FF73A8
S31500008BC423F4803343EA01439367144B4FF0004286
S31500008BD401689A660B68B3B14FF04022936F097926
S31500008BE423F4FF7323F001030B4393670B4B4FF0FE
S31500008BF480429A66F0BD13460121BAE71346012165
S31500008C04CEE7074BE2E7064BF1E700BF70340020DE
S31500008C14A438002090340020CC38002000500040B6
S31500008C2400600040012208B50F4B00211A700F485E
S31500008C3428222DF0E2FC002128220D482DF0DDFC2F
S31500008C440C4B0D4A13600D4A13604FF040420C4B17
S31500008C545A669A6620220B4BC3F880211A60FFF7E6
S31500008C6477FF002008BD00BF5D3E0020A438002029
S31500008C74CC380020F03400207034002090340020DA
S31500008C840060004000E100E008B500F015FEDFEDED
S31500008C94117AB4EEE70AF1EE10FA18D4DFED0E7A83
S31500008CA4B4EE670AF1EE10FA37FE800A10EE100AE7
S31500008CB42DF024FA0022094B2DF0C2F80022084BAD
S31500008CC42DF0BEF82DF072FA803840B208BDB0EE31
S31500008CD4670AEBE7000000C30000FE420000E03F25
S31500008CE4000060404FF0402238B5936E526E134038
S31500008CF413F0804212D0114B1B681D6835B1002455
S31500008D041C605C60FFF7C0FF2146A8474FF0804215
S31500008D140B4B5A66BDE83840FFF71ABF002BF9DA49
S31500008D24084B1B681C682CB11A605A60FFF7ACFF2D
S31500008D340121A0474FF00042014BEAE7903400209E
S31500008D440060004070340020FFF7CCBF70B588B0D7
S31500008D540E22002104A82DF050FC01230D2200212F
S31500008D6468468DF810302DF048FC0223234C6A46E1
S31500008D74002120468DF8063000F0E0FF236B4FF605
S31500008D84FF73E36100231E4DADF81230204604A99B
S31500008D9400F087FF062000F0DBF9BDF8123001333E
S31500008DA4B0FBF3F09BB2B3F5806F2860ADF81230D8
S31500008DB402D2144B9842E9D80F2000F0C9F92E6864
S31500008DC40025114C2946B4FBF0F410480023E6FBB9
S31500008DD404010F4A2DF012FA0E4B084A18600E4B86
S31500008DE428461D70936923F01003936140220B4BB0
S31500008DF4C3F880211A6008B070BD00BF008004402B
S31500008E041033002080841E0000B0710B20A10700DF
S31500008E1440420F00E83400206A41002000E100E0EF
S31500008E24054B5B69DB0605D51022044B5A6101220A
S31500008E34034B1A70704700BF0080044000A0044032
S31500008E446A41002038B5124B0546D3F820310C464A
S31500008E5403F00703013B032B17D8DFE803F0020AEC
S31500008E640E1201F021F8042305B1286004B1237021
S31500008E7438BD01F04FF80323F6E701F067F8052340
S31500008E84F2E701F05FF80223EEE700231846EBE76A
S31500008E940080004037B50C460021124A0191D2F8F1
S31500008EA48021054602F00302022A0ED0032A11D0BD
S31500008EB4012A14D101A8FFF7C5FF0D230DB1019AAC
S31500008EC42A6004B1237003B030BD01F03FF80523D6
S31500008ED40190F3E701F036F802230190EEE70B4622
S31500008EE4ECE700BF0080004038B5104B0546D3F8C8
S31500008EF440310C4603F00303022B0BD0032B0DD099
S31500008F04012B0FD101F066F8082305B1286004B1DE
S31500008F14237038BD01F064F80723F6E701F05DF825
S31500008F240923F2E700231846EFE700BF008000405C
S31500008F3438B5104B0546D3F860310C4603F00303ED
S31500008F44022B0BD0032B0DD0012B0FD101F042F8CD
S31500008F54082305B1286004B1237038BD01F040F838
S31500008F640723F6E701F039F80923F2E70023184648
S31500008F74EFE700BF0080004038B5134B0546D3F831
S31500008F8400320C4603F00703013B032B18D8DFE835
S31500008F9403F0020A0E1201F01DF8082305B1286039
S31500008FA404B1237038BD01F01BF80723F6E701F07E
S31500008FB414F80923F2E700F097FF0C23800AEDE783
S31500008FC400231846EAE700BF0080004038B5134B7B
S31500008FD40546D3F808320C4603F00703013B032B7E
S31500008FE418D8DFE803F0020A0E1200F0F3FF082394
S31500008FF405B1286004B1237038BD00F0F1FF0723E2
S31500009004F6E700F0EAFF0923F2E700F06DFF0C2310
S31500009014800AEDE700231846EAE700BF0080004017
S3150000902438B5104B0546D3F840320C4603F003031B
S31500009034022B0BD0032B0DD0012B0FD100F0CAFF4E
S31500009044082305B1286004B1237038BD00F0C8FFB9
S315000090540723F6E700F0C1FF0923F2E700231846C9
S31500009064EFE700BF0080004038B5104B0546D3F843
S3150000907400310C4603F00303022B0BD0032B0DD057
S31500009084012B0FD100F046FF032305B1286004B17C
S31500009094237038BD00F0A4FF0723F6E700F050FF65
S315000090A40623F2E701230020EFE700BF008000401B
S315000090B441F671330F4A10B5D169D36393680E4CE8
S315000090C423F44013A04288BF43F4801393600B4AF1
S315000090D40B4CD2F81832A04223F0020388BF43F0A7
S315000090E4020301F48031C2F8183211B10022014B97
S315000090F4DA6310BD00000340C017530200C00740E6
S3150000910480F0FA0208B500F001FFBDE80840FFF759
S31500009114CFBF0000032814D005D8012805D00228A3
S3150000912409D0002005E00F28FBD1084B186FC0F3C7
S31500009134013001307047054BD3F89000C0F304604A
S31500009144F7E7024B186FC0F38020F2E70080004077
S315000091541FB500230293252817D8DFE800F0131A59
S315000091641D262B353A51565B60656A78161A3F16EA
S3150000917416561A262B26351A5126783A3A3A3A269C
S3150000918426265B6000F096FE0290029805B05DF814
S3150000919404FB00F0A9FEF7E700F08CFE024602206D
S315000091A4FFF7B8FFB2FBF0F0EEE700F09DFE0246D3
S315000091B40320F5E700F098FE02460320FFF7AAFF16
S315000091C4B2FBF0F04008DFE7002102A8FFF762FED9
S315000091D4DBE7002102A8FFF735FED6E703934FF03D
S315000091E4E0231B695B0705D500F07EFE0390039B15
S315000091F40293CAE70DF1070103A8FFF775FEF6E728
S31500009204002102A8FFF770FEBFE7002102A8FFF7BE
S315000092148FFEBAE7002102A8FFF7AEFEB5E70021EC
S3150000922402A8FFF7D3FEB0E7002102A8FFF71CFF50
S31500009234ABE7094BD3F8803003F00303022BA8D025
S31500009244032B01D000209FE700F080FE9CE700215D
S3150000925402A8FFF7E5FE98E700800040032810B552
S315000092640C4626D004D8012804D0022816D010BDF6
S315000092740F28FCD1FFF746FF00F026F8114B013CFE
S31500009284196F21F4405141EA04341C6700F02CFEA6
S31500009294FFF70EFFBDE8104000F01AB8094B013C79
S315000092A4D3F8901021F0F85141EA0464C3F89040D1
S315000092B4DDE7044B013C196F21F4806141EA842403
S315000092C41C67D4E70080004002210320FFF7C6BFD5
S315000092D408B50120FFF73CFFBDE808400349884272
S315000092E48CBF022101210320FFF7B8BF80F0FA02E8
S315000092F4002307B58DF80230252822D8DFE800F0D0
S3150000930413212121212C324C52585E646A7D21217D
S3150000931438212152212121212C214C217D32323226
S3150000932432212121585E384B1B6F03F00703013BA2
S31500009334032B06D8DFE803F00E020A0C04238DF88B
S3150000934402309DF8020003B05DF804FB0323F6E740
S315000093540623F4E70223F2E700200DF10201FFF7EA
S3150000936499FDEEE700200DF10201FFF76BFDE8E73A
S3150000937401934FF0E0231B695B0707D500F0B4FDAA
S315000093840B238DF803309DF80330D8E70DF1030164
S3150000939401A8FFF7A9FDF6E700200DF10201FFF78A
S315000093A4A3FDCEE700200DF10201FFF7C1FDC8E7DA
S315000093B400200DF10201FFF7DFFDC2E700200DF1E9
S315000093C40201FFF703FEBCE700200DF10201FFF7DF
S315000093D44BFEB6E70C4BD3F8803003F00303022BA5
S315000093E403D0032B05D00023A9E700F07DFD0B2352
S315000093F4A5E700F0ABFD0523A1E700200DF102016E
S31500009404FFF70EFE9DE700BF0080004070B50C46D6
S31500009414252847D8DFE810F0260046004600460017
S3150000942446005A006B009C00AD00BE00CF00E00071
S31500009434F1000201460046007C0046004600AD00ED
S3150000944446004600460046005A0046009C00460078
S3150000945402016B006B006B006B0046004600460081
S31500009464BE00CF008B1E042B2DD8DFE803F0291C89
S31500009474032C260000250226FFF744FEFFF724FFEF
S315000094846F4A136F23F007033343136700F02CFD71
S31500009494FFF70EFEFFF71CFF25B9032C02D10122AC
S315000094A4684B9A6270BD0122674B03269D6A03F5D9
S315000094B48053C5F340059A62DEE700250426DBE700
S315000094C400250126D8E700252E46D5E78C1EE4B2F2
S315000094D40B2C8CBF00215D4B594A98BF195DD2F8FD
S315000094E4803123F003030B43C2F88031DAE78C1E84
S315000094F4E4B2032C8CBF0021554B514A98BF195D29
S31500009504D2F8203123F007030B43C2F82031C9E710
S315000095140B2912D00ED8CC1F022CC3D84D4A536A3D
S3150000952443F0010353624FF0E022136923F004036E
S315000095341361B7E70E29B5D1F0E7464A536A23F01B
S31500009544010353624FF0E022136943F00403EFE78B
S31500009554CC1FE4B2022C8CBF00213F4B384A98BF83
S31500009564195DD2F8403123F003030B43C2F84031AE
S3150000957498E7CC1FE4B2022C8CBF0021374B304A4B
S3150000958498BF195DD2F8603123F003030B43C2F888
S31500009594603187E7CC1FE4B2052C8CBF0021304B29
S315000095A4274A98BF195DD2F8003223F007030B430C
S315000095B4C2F8003276E7CC1FE4B2052C8CBF00213A
S315000095C4284B1F4A98BF195DD2F8083223F00703C7
S315000095D40B43C2F8083265E7CC1EE4B2042C8CBFF8
S315000095E40021214B164A98BF195DD2F8003123F0A9
S315000095F403030B43C2F8003154E705290CD00B29A9
S3150000960414BF002102210E4AD2F8803023F003034E
S315000096140B43C2F8803045E70321F4E7CC1FE4B2DC
S31500009624022C8CBF0021114B054A98BF195DD2F854
S31500009634403223F003030B43C2F8403232E700BF43
S315000096440080004000E0004000C0004023EA030020
